{
  "@eth-optimism/contracts/L1/messaging/L1StandardBridge.sol": {
    "L1StandardBridge": {
      "abi": [
        {
          "inputs": [],
          "stateMutability": "nonpayable",
          "type": "constructor"
        },
        {
          "anonymous": false,
          "inputs": [
            {
              "indexed": true,
              "internalType": "address",
              "name": "_l1Token",
              "type": "address"
            },
            {
              "indexed": true,
              "internalType": "address",
              "name": "_l2Token",
              "type": "address"
            },
            {
              "indexed": true,
              "internalType": "address",
              "name": "_from",
              "type": "address"
            },
            {
              "indexed": false,
              "internalType": "address",
              "name": "_to",
              "type": "address"
            },
            {
              "indexed": false,
              "internalType": "uint256",
              "name": "_amount",
              "type": "uint256"
            },
            {
              "indexed": false,
              "internalType": "bytes",
              "name": "_data",
              "type": "bytes"
            }
          ],
          "name": "ERC20DepositInitiated",
          "type": "event"
        },
        {
          "anonymous": false,
          "inputs": [
            {
              "indexed": true,
              "internalType": "address",
              "name": "_l1Token",
              "type": "address"
            },
            {
              "indexed": true,
              "internalType": "address",
              "name": "_l2Token",
              "type": "address"
            },
            {
              "indexed": true,
              "internalType": "address",
              "name": "_from",
              "type": "address"
            },
            {
              "indexed": false,
              "internalType": "address",
              "name": "_to",
              "type": "address"
            },
            {
              "indexed": false,
              "internalType": "uint256",
              "name": "_amount",
              "type": "uint256"
            },
            {
              "indexed": false,
              "internalType": "bytes",
              "name": "_data",
              "type": "bytes"
            }
          ],
          "name": "ERC20WithdrawalFinalized",
          "type": "event"
        },
        {
          "anonymous": false,
          "inputs": [
            {
              "indexed": true,
              "internalType": "address",
              "name": "_from",
              "type": "address"
            },
            {
              "indexed": true,
              "internalType": "address",
              "name": "_to",
              "type": "address"
            },
            {
              "indexed": false,
              "internalType": "uint256",
              "name": "_amount",
              "type": "uint256"
            },
            {
              "indexed": false,
              "internalType": "bytes",
              "name": "_data",
              "type": "bytes"
            }
          ],
          "name": "ETHDepositInitiated",
          "type": "event"
        },
        {
          "anonymous": false,
          "inputs": [
            {
              "indexed": true,
              "internalType": "address",
              "name": "_from",
              "type": "address"
            },
            {
              "indexed": true,
              "internalType": "address",
              "name": "_to",
              "type": "address"
            },
            {
              "indexed": false,
              "internalType": "uint256",
              "name": "_amount",
              "type": "uint256"
            },
            {
              "indexed": false,
              "internalType": "bytes",
              "name": "_data",
              "type": "bytes"
            }
          ],
          "name": "ETHWithdrawalFinalized",
          "type": "event"
        },
        {
          "inputs": [
            {
              "internalType": "address",
              "name": "_l1Token",
              "type": "address"
            },
            {
              "internalType": "address",
              "name": "_l2Token",
              "type": "address"
            },
            {
              "internalType": "uint256",
              "name": "_amount",
              "type": "uint256"
            },
            {
              "internalType": "uint32",
              "name": "_l2Gas",
              "type": "uint32"
            },
            {
              "internalType": "bytes",
              "name": "_data",
              "type": "bytes"
            }
          ],
          "name": "depositERC20",
          "outputs": [],
          "stateMutability": "nonpayable",
          "type": "function"
        },
        {
          "inputs": [
            {
              "internalType": "address",
              "name": "_l1Token",
              "type": "address"
            },
            {
              "internalType": "address",
              "name": "_l2Token",
              "type": "address"
            },
            {
              "internalType": "address",
              "name": "_to",
              "type": "address"
            },
            {
              "internalType": "uint256",
              "name": "_amount",
              "type": "uint256"
            },
            {
              "internalType": "uint32",
              "name": "_l2Gas",
              "type": "uint32"
            },
            {
              "internalType": "bytes",
              "name": "_data",
              "type": "bytes"
            }
          ],
          "name": "depositERC20To",
          "outputs": [],
          "stateMutability": "nonpayable",
          "type": "function"
        },
        {
          "inputs": [
            {
              "internalType": "uint32",
              "name": "_l2Gas",
              "type": "uint32"
            },
            {
              "internalType": "bytes",
              "name": "_data",
              "type": "bytes"
            }
          ],
          "name": "depositETH",
          "outputs": [],
          "stateMutability": "payable",
          "type": "function"
        },
        {
          "inputs": [
            {
              "internalType": "address",
              "name": "_to",
              "type": "address"
            },
            {
              "internalType": "uint32",
              "name": "_l2Gas",
              "type": "uint32"
            },
            {
              "internalType": "bytes",
              "name": "_data",
              "type": "bytes"
            }
          ],
          "name": "depositETHTo",
          "outputs": [],
          "stateMutability": "payable",
          "type": "function"
        },
        {
          "inputs": [
            {
              "internalType": "address",
              "name": "",
              "type": "address"
            },
            {
              "internalType": "address",
              "name": "",
              "type": "address"
            }
          ],
          "name": "deposits",
          "outputs": [
            {
              "internalType": "uint256",
              "name": "",
              "type": "uint256"
            }
          ],
          "stateMutability": "view",
          "type": "function"
        },
        {
          "inputs": [],
          "name": "donateETH",
          "outputs": [],
          "stateMutability": "payable",
          "type": "function"
        },
        {
          "inputs": [
            {
              "internalType": "address",
              "name": "_l1Token",
              "type": "address"
            },
            {
              "internalType": "address",
              "name": "_l2Token",
              "type": "address"
            },
            {
              "internalType": "address",
              "name": "_from",
              "type": "address"
            },
            {
              "internalType": "address",
              "name": "_to",
              "type": "address"
            },
            {
              "internalType": "uint256",
              "name": "_amount",
              "type": "uint256"
            },
            {
              "internalType": "bytes",
              "name": "_data",
              "type": "bytes"
            }
          ],
          "name": "finalizeERC20Withdrawal",
          "outputs": [],
          "stateMutability": "nonpayable",
          "type": "function"
        },
        {
          "inputs": [
            {
              "internalType": "address",
              "name": "_from",
              "type": "address"
            },
            {
              "internalType": "address",
              "name": "_to",
              "type": "address"
            },
            {
              "internalType": "uint256",
              "name": "_amount",
              "type": "uint256"
            },
            {
              "internalType": "bytes",
              "name": "_data",
              "type": "bytes"
            }
          ],
          "name": "finalizeETHWithdrawal",
          "outputs": [],
          "stateMutability": "nonpayable",
          "type": "function"
        },
        {
          "inputs": [
            {
              "internalType": "address",
              "name": "_l1messenger",
              "type": "address"
            },
            {
              "internalType": "address",
              "name": "_l2TokenBridge",
              "type": "address"
            }
          ],
          "name": "initialize",
          "outputs": [],
          "stateMutability": "nonpayable",
          "type": "function"
        },
        {
          "inputs": [],
          "name": "l2TokenBridge",
          "outputs": [
            {
              "internalType": "address",
              "name": "",
              "type": "address"
            }
          ],
          "stateMutability": "view",
          "type": "function"
        },
        {
          "inputs": [],
          "name": "messenger",
          "outputs": [
            {
              "internalType": "address",
              "name": "",
              "type": "address"
            }
          ],
          "stateMutability": "view",
          "type": "function"
        },
        {
          "stateMutability": "payable",
          "type": "receive"
        }
      ],
      "evm": {
        "bytecode": {
          "linkReferences": {},
          "object": "608060405234801561001057600080fd5b506000806000806101000a81548173ffffffffffffffffffffffffffffffffffffffff021916908373ffffffffffffffffffffffffffffffffffffffff160217905550506122c2806100636000396000f3fe6080604052600436106100a05760003560e01c80638b4c40b0116100645780638b4c40b0146101e25780638f601f66146101ec57806391c49bf8146102295780639a2ac6d514610254578063a9f9e67514610270578063b1a1a882146102995761010e565b80631532ec34146101135780633cb747bf1461013c578063485cc9551461016757806358a997f614610190578063838b2520146101b95761010e565b3661010e576100ae336102b5565b156100ee576040517f08c379a00000000000000000000000000000000000000000000000000000000081526004016100e59061140e565b60405180910390fd5b61010c333362030d40604051806020016040528060008152506102c8565b005b600080fd5b34801561011f57600080fd5b5061013a60048036038101906101359190611531565b6103fc565b005b34801561014857600080fd5b506101516106f3565b60405161015e91906115c8565b60405180910390f35b34801561017357600080fd5b5061018e600480360381019061018991906115e3565b610717565b005b34801561019c57600080fd5b506101b760048036038101906101b2919061165f565b61082b565b005b3480156101c557600080fd5b506101e060048036038101906101db91906116f9565b61088c565b005b6101ea6108a5565b005b3480156101f857600080fd5b50610213600480360381019061020e91906115e3565b6108a7565b60405161022091906117b7565b60405180910390f35b34801561023557600080fd5b5061023e6108cc565b60405161024b91906115c8565b60405180910390f35b61026e600480360381019061026991906117d2565b6108f2565b005b34801561027c57600080fd5b5061029760048036038101906102929190611846565b610948565b005b6102b360048036038101906102ae91906118f5565b610c91565b005b600080823b905060008111915050919050565b600063662a633a60e01b600073deaddeaddeaddeaddeaddeaddeaddeaddead00008787348760405160240161030296959493929190611a0f565b604051602081830303815290604052907bffffffffffffffffffffffffffffffffffffffffffffffffffffffff19166020820180517bffffffffffffffffffffffffffffffffffffffffffffffffffffffff8381831617835250505050905061038e600160009054906101000a900473ffffffffffffffffffffffffffffffffffffffff168483610d2f565b8373ffffffffffffffffffffffffffffffffffffffff168573ffffffffffffffffffffffffffffffffffffffff167f35d79ab81f2b2017e19afb5c5571778877782d7a8786f5907f93b0f4702f4f2334856040516103ed929190611a77565b60405180910390a35050505050565b600160009054906101000a900473ffffffffffffffffffffffffffffffffffffffff16610427610daa565b73ffffffffffffffffffffffffffffffffffffffff163373ffffffffffffffffffffffffffffffffffffffff1614610494576040517f08c379a000000000000000000000000000000000000000000000000000000000815260040161048b90611b19565b60405180910390fd5b8073ffffffffffffffffffffffffffffffffffffffff166104b3610daa565b73ffffffffffffffffffffffffffffffffffffffff16636e296e456040518163ffffffff1660e01b815260040160206040518083038186803b1580156104f857600080fd5b505afa15801561050c573d6000803e3d6000fd5b505050506040513d601f19601f820116820180604052508101906105309190611b4e565b73ffffffffffffffffffffffffffffffffffffffff1614610586576040517f08c379a000000000000000000000000000000000000000000000000000000000815260040161057d90611bed565b60405180910390fd5b60008573ffffffffffffffffffffffffffffffffffffffff1685600067ffffffffffffffff8111156105bb576105ba611c0d565b5b6040519080825280601f01601f1916602001820160405280156105ed5781602001600182028036833780820191505090505b506040516105fb9190611c78565b60006040518083038185875af1925050503d8060008114610638576040519150601f19603f3d011682016040523d82523d6000602084013e61063d565b606091505b5050905080610681576040517f08c379a000000000000000000000000000000000000000000000000000000000815260040161067890611d01565b60405180910390fd5b8573ffffffffffffffffffffffffffffffffffffffff168773ffffffffffffffffffffffffffffffffffffffff167f2ac69ee804d9a7a0984249f508dfab7cb2534b465b6ce1580f99a38ba9c5e6318787876040516106e293929190611d5d565b60405180910390a350505050505050565b60008054906101000a900473ffffffffffffffffffffffffffffffffffffffff1681565b600073ffffffffffffffffffffffffffffffffffffffff1660008054906101000a900473ffffffffffffffffffffffffffffffffffffffff1673ffffffffffffffffffffffffffffffffffffffff16146107a6576040517f08c379a000000000000000000000000000000000000000000000000000000000815260040161079d90611e01565b60405180910390fd5b816000806101000a81548173ffffffffffffffffffffffffffffffffffffffff021916908373ffffffffffffffffffffffffffffffffffffffff16021790555080600160006101000a81548173ffffffffffffffffffffffffffffffffffffffff021916908373ffffffffffffffffffffffffffffffffffffffff1602179055505050565b610834336102b5565b15610874576040517f08c379a000000000000000000000000000000000000000000000000000000000815260040161086b9061140e565b60405180910390fd5b6108848686333388888888610dd3565b505050505050565b61089c8787338888888888610dd3565b50505050505050565b565b6002602052816000526040600020602052806000526040600020600091509150505481565b600160009054906101000a900473ffffffffffffffffffffffffffffffffffffffff1681565b61094233858585858080601f016020809104026020016040519081016040528093929190818152602001838380828437600081840152601f19601f820116905080830192505050505050506102c8565b50505050565b600160009054906101000a900473ffffffffffffffffffffffffffffffffffffffff16610973610daa565b73ffffffffffffffffffffffffffffffffffffffff163373ffffffffffffffffffffffffffffffffffffffff16146109e0576040517f08c379a00000000000000000000000000000000000000000000000000000000081526004016109d790611b19565b60405180910390fd5b8073ffffffffffffffffffffffffffffffffffffffff166109ff610daa565b73ffffffffffffffffffffffffffffffffffffffff16636e296e456040518163ffffffff1660e01b815260040160206040518083038186803b158015610a4457600080fd5b505afa158015610a58573d6000803e3d6000fd5b505050506040513d601f19601f82011682018060405250810190610a7c9190611b4e565b73ffffffffffffffffffffffffffffffffffffffff1614610ad2576040517f08c379a0000000000000000000000000000000000000000000000000000000008152600401610ac990611bed565b60405180910390fd5b83600260008a73ffffffffffffffffffffffffffffffffffffffff1673ffffffffffffffffffffffffffffffffffffffff16815260200190815260200160002060008973ffffffffffffffffffffffffffffffffffffffff1673ffffffffffffffffffffffffffffffffffffffff16815260200190815260200160002054610b5a9190611e50565b600260008a73ffffffffffffffffffffffffffffffffffffffff1673ffffffffffffffffffffffffffffffffffffffff16815260200190815260200160002060008973ffffffffffffffffffffffffffffffffffffffff1673ffffffffffffffffffffffffffffffffffffffff16815260200190815260200160002081905550610c0585858a73ffffffffffffffffffffffffffffffffffffffff166110489092919063ffffffff16565b8573ffffffffffffffffffffffffffffffffffffffff168773ffffffffffffffffffffffffffffffffffffffff168973ffffffffffffffffffffffffffffffffffffffff167f3ceee06c1e37648fcbb6ed52e17b3e1f275a1f8c7b22a84b2b84732431e046b388888888604051610c7f9493929190611e84565b60405180910390a45050505050505050565b610c9a336102b5565b15610cda576040517f08c379a0000000000000000000000000000000000000000000000000000000008152600401610cd19061140e565b60405180910390fd5b610d2a33338585858080601f016020809104026020016040519081016040528093929190818152602001838380828437600081840152601f19601f820116905080830192505050505050506102c8565b505050565b610d37610daa565b73ffffffffffffffffffffffffffffffffffffffff16633dbb202b8483856040518463ffffffff1660e01b8152600401610d7393929190611ed3565b600060405180830381600087803b158015610d8d57600080fd5b505af1158015610da1573d6000803e3d6000fd5b50505050505050565b60008060009054906101000a900473ffffffffffffffffffffffffffffffffffffffff16905090565b610e008630868b73ffffffffffffffffffffffffffffffffffffffff166110ce909392919063ffffffff16565b600063662a633a60e01b89898989898888604051602401610e279796959493929190611f11565b604051602081830303815290604052907bffffffffffffffffffffffffffffffffffffffffffffffffffffffff19166020820180517bffffffffffffffffffffffffffffffffffffffffffffffffffffffff83818316178352505050509050610eb3600160009054906101000a900473ffffffffffffffffffffffffffffffffffffffff168583610d2f565b84600260008b73ffffffffffffffffffffffffffffffffffffffff1673ffffffffffffffffffffffffffffffffffffffff16815260200190815260200160002060008a73ffffffffffffffffffffffffffffffffffffffff1673ffffffffffffffffffffffffffffffffffffffff16815260200190815260200160002054610f3b9190611f7b565b600260008b73ffffffffffffffffffffffffffffffffffffffff1673ffffffffffffffffffffffffffffffffffffffff16815260200190815260200160002060008a73ffffffffffffffffffffffffffffffffffffffff1673ffffffffffffffffffffffffffffffffffffffff168152602001908152602001600020819055508673ffffffffffffffffffffffffffffffffffffffff168873ffffffffffffffffffffffffffffffffffffffff168a73ffffffffffffffffffffffffffffffffffffffff167f718594027abd4eaed59f95162563e0cc6d0e8d5b86b1c7be8b1b0ac3343d0396898988886040516110359493929190611e84565b60405180910390a4505050505050505050565b6110c98363a9059cbb60e01b8484604051602401611067929190611fd1565b604051602081830303815290604052907bffffffffffffffffffffffffffffffffffffffffffffffffffffffff19166020820180517bffffffffffffffffffffffffffffffffffffffffffffffffffffffff8381831617835250505050611157565b505050565b611151846323b872dd60e01b8585856040516024016110ef93929190611ffa565b604051602081830303815290604052907bffffffffffffffffffffffffffffffffffffffffffffffffffffffff19166020820180517bffffffffffffffffffffffffffffffffffffffffffffffffffffffff8381831617835250505050611157565b50505050565b60006111b9826040518060400160405280602081526020017f5361666545524332303a206c6f772d6c6576656c2063616c6c206661696c65648152508573ffffffffffffffffffffffffffffffffffffffff1661121e9092919063ffffffff16565b905060008151111561121957808060200190518101906111d99190612069565b611218576040517f08c379a000000000000000000000000000000000000000000000000000000000815260040161120f90612108565b60405180910390fd5b5b505050565b606061122d8484600085611236565b90509392505050565b60608247101561127b576040517f08c379a00000000000000000000000000000000000000000000000000000000081526004016112729061219a565b60405180910390fd5b611284856102b5565b6112c3576040517f08c379a00000000000000000000000000000000000000000000000000000000081526004016112ba90612206565b60405180910390fd5b6000808673ffffffffffffffffffffffffffffffffffffffff1685876040516112ec9190611c78565b60006040518083038185875af1925050503d8060008114611329576040519150601f19603f3d011682016040523d82523d6000602084013e61132e565b606091505b509150915061133e82828661134a565b92505050949350505050565b6060831561135a578290506113aa565b60008351111561136d5782518084602001fd5b816040517f08c379a00000000000000000000000000000000000000000000000000000000081526004016113a1919061226a565b60405180910390fd5b9392505050565b600082825260208201905092915050565b7f4163636f756e74206e6f7420454f410000000000000000000000000000000000600082015250565b60006113f8600f836113b1565b9150611403826113c2565b602082019050919050565b60006020820190508181036000830152611427816113eb565b9050919050565b600080fd5b600080fd5b600073ffffffffffffffffffffffffffffffffffffffff82169050919050565b600061146382611438565b9050919050565b61147381611458565b811461147e57600080fd5b50565b6000813590506114908161146a565b92915050565b6000819050919050565b6114a981611496565b81146114b457600080fd5b50565b6000813590506114c6816114a0565b92915050565b600080fd5b600080fd5b600080fd5b60008083601f8401126114f1576114f06114cc565b5b8235905067ffffffffffffffff81111561150e5761150d6114d1565b5b60208301915083600182028301111561152a576115296114d6565b5b9250929050565b60008060008060006080868803121561154d5761154c61142e565b5b600061155b88828901611481565b955050602061156c88828901611481565b945050604061157d888289016114b7565b935050606086013567ffffffffffffffff81111561159e5761159d611433565b5b6115aa888289016114db565b92509250509295509295909350565b6115c281611458565b82525050565b60006020820190506115dd60008301846115b9565b92915050565b600080604083850312156115fa576115f961142e565b5b600061160885828601611481565b925050602061161985828601611481565b9150509250929050565b600063ffffffff82169050919050565b61163c81611623565b811461164757600080fd5b50565b60008135905061165981611633565b92915050565b60008060008060008060a0878903121561167c5761167b61142e565b5b600061168a89828a01611481565b965050602061169b89828a01611481565b95505060406116ac89828a016114b7565b94505060606116bd89828a0161164a565b935050608087013567ffffffffffffffff8111156116de576116dd611433565b5b6116ea89828a016114db565b92509250509295509295509295565b600080600080600080600060c0888a0312156117185761171761142e565b5b60006117268a828b01611481565b97505060206117378a828b01611481565b96505060406117488a828b01611481565b95505060606117598a828b016114b7565b945050608061176a8a828b0161164a565b93505060a088013567ffffffffffffffff81111561178b5761178a611433565b5b6117978a828b016114db565b925092505092959891949750929550565b6117b181611496565b82525050565b60006020820190506117cc60008301846117a8565b92915050565b600080600080606085870312156117ec576117eb61142e565b5b60006117fa87828801611481565b945050602061180b8782880161164a565b935050604085013567ffffffffffffffff81111561182c5761182b611433565b5b611838878288016114db565b925092505092959194509250565b600080600080600080600060c0888a0312156118655761186461142e565b5b60006118738a828b01611481565b97505060206118848a828b01611481565b96505060406118958a828b01611481565b95505060606118a68a828b01611481565b94505060806118b78a828b016114b7565b93505060a088013567ffffffffffffffff8111156118d8576118d7611433565b5b6118e48a828b016114db565b925092505092959891949750929550565b60008060006040848603121561190e5761190d61142e565b5b600061191c8682870161164a565b935050602084013567ffffffffffffffff81111561193d5761193c611433565b5b611949868287016114db565b92509250509250925092565b600061196082611438565b9050919050565b61197081611955565b82525050565b600081519050919050565b600082825260208201905092915050565b60005b838110156119b0578082015181840152602081019050611995565b838111156119bf576000848401525b50505050565b6000601f19601f8301169050919050565b60006119e182611976565b6119eb8185611981565b93506119fb818560208601611992565b611a04816119c5565b840191505092915050565b600060c082019050611a2460008301896115b9565b611a316020830188611967565b611a3e60408301876115b9565b611a4b60608301866115b9565b611a5860808301856117a8565b81810360a0830152611a6a81846119d6565b9050979650505050505050565b6000604082019050611a8c60008301856117a8565b8181036020830152611a9e81846119d6565b90509392505050565b7f4f564d5f58434841494e3a206d657373656e67657220636f6e7472616374207560008201527f6e61757468656e74696361746564000000000000000000000000000000000000602082015250565b6000611b03602e836113b1565b9150611b0e82611aa7565b604082019050919050565b60006020820190508181036000830152611b3281611af6565b9050919050565b600081519050611b488161146a565b92915050565b600060208284031215611b6457611b6361142e565b5b6000611b7284828501611b39565b91505092915050565b7f4f564d5f58434841494e3a2077726f6e672073656e646572206f662063726f7360008201527f732d646f6d61696e206d65737361676500000000000000000000000000000000602082015250565b6000611bd76030836113b1565b9150611be282611b7b565b604082019050919050565b60006020820190508181036000830152611c0681611bca565b9050919050565b7f4e487b7100000000000000000000000000000000000000000000000000000000600052604160045260246000fd5b600081905092915050565b6000611c5282611976565b611c5c8185611c3c565b9350611c6c818560208601611992565b80840191505092915050565b6000611c848284611c47565b915081905092915050565b7f5472616e7366657248656c7065723a3a736166655472616e736665724554483a60008201527f20455448207472616e73666572206661696c6564000000000000000000000000602082015250565b6000611ceb6034836113b1565b9150611cf682611c8f565b604082019050919050565b60006020820190508181036000830152611d1a81611cde565b9050919050565b82818337600083830152505050565b6000611d3c8385611981565b9350611d49838584611d21565b611d52836119c5565b840190509392505050565b6000604082019050611d7260008301866117a8565b8181036020830152611d85818486611d30565b9050949350505050565b7f436f6e74726163742068617320616c7265616479206265656e20696e6974696160008201527f6c697a65642e0000000000000000000000000000000000000000000000000000602082015250565b6000611deb6026836113b1565b9150611df682611d8f565b604082019050919050565b60006020820190508181036000830152611e1a81611dde565b9050919050565b7f4e487b7100000000000000000000000000000000000000000000000000000000600052601160045260246000fd5b6000611e5b82611496565b9150611e6683611496565b925082821015611e7957611e78611e21565b5b828203905092915050565b6000606082019050611e9960008301876115b9565b611ea660208301866117a8565b8181036040830152611eb9818486611d30565b905095945050505050565b611ecd81611623565b82525050565b6000606082019050611ee860008301866115b9565b8181036020830152611efa81856119d6565b9050611f096040830184611ec4565b949350505050565b600060c082019050611f26600083018a6115b9565b611f3360208301896115b9565b611f4060408301886115b9565b611f4d60608301876115b9565b611f5a60808301866117a8565b81810360a0830152611f6d818486611d30565b905098975050505050505050565b6000611f8682611496565b9150611f9183611496565b9250827fffffffffffffffffffffffffffffffffffffffffffffffffffffffffffffffff03821115611fc657611fc5611e21565b5b828201905092915050565b6000604082019050611fe660008301856115b9565b611ff360208301846117a8565b9392505050565b600060608201905061200f60008301866115b9565b61201c60208301856115b9565b61202960408301846117a8565b949350505050565b60008115159050919050565b61204681612031565b811461205157600080fd5b50565b6000815190506120638161203d565b92915050565b60006020828403121561207f5761207e61142e565b5b600061208d84828501612054565b91505092915050565b7f5361666545524332303a204552433230206f7065726174696f6e20646964206e60008201527f6f74207375636365656400000000000000000000000000000000000000000000602082015250565b60006120f2602a836113b1565b91506120fd82612096565b604082019050919050565b60006020820190508181036000830152612121816120e5565b9050919050565b7f416464726573733a20696e73756666696369656e742062616c616e636520666f60008201527f722063616c6c0000000000000000000000000000000000000000000000000000602082015250565b60006121846026836113b1565b915061218f82612128565b604082019050919050565b600060208201905081810360008301526121b381612177565b9050919050565b7f416464726573733a2063616c6c20746f206e6f6e2d636f6e7472616374000000600082015250565b60006121f0601d836113b1565b91506121fb826121ba565b602082019050919050565b6000602082019050818103600083015261221f816121e3565b9050919050565b600081519050919050565b600061223c82612226565b61224681856113b1565b9350612256818560208601611992565b61225f816119c5565b840191505092915050565b600060208201905081810360008301526122848184612231565b90509291505056fea2646970667358221220fd4cec2afe1791974e71df8c22c31532e2f0bfea1d8a945f065514a1ce3c12c364736f6c63430008090033",
          "opcodes": "PUSH1 0x80 PUSH1 0x40 MSTORE CALLVALUE DUP1 ISZERO PUSH2 0x10 JUMPI PUSH1 0x0 DUP1 REVERT JUMPDEST POP PUSH1 0x0 DUP1 PUSH1 0x0 DUP1 PUSH2 0x100 EXP DUP2 SLOAD DUP2 PUSH20 0xFFFFFFFFFFFFFFFFFFFFFFFFFFFFFFFFFFFFFFFF MUL NOT AND SWAP1 DUP4 PUSH20 0xFFFFFFFFFFFFFFFFFFFFFFFFFFFFFFFFFFFFFFFF AND MUL OR SWAP1 SSTORE POP POP PUSH2 0x22C2 DUP1 PUSH2 0x63 PUSH1 0x0 CODECOPY PUSH1 0x0 RETURN INVALID PUSH1 0x80 PUSH1 0x40 MSTORE PUSH1 0x4 CALLDATASIZE LT PUSH2 0xA0 JUMPI PUSH1 0x0 CALLDATALOAD PUSH1 0xE0 SHR DUP1 PUSH4 0x8B4C40B0 GT PUSH2 0x64 JUMPI DUP1 PUSH4 0x8B4C40B0 EQ PUSH2 0x1E2 JUMPI DUP1 PUSH4 0x8F601F66 EQ PUSH2 0x1EC JUMPI DUP1 PUSH4 0x91C49BF8 EQ PUSH2 0x229 JUMPI DUP1 PUSH4 0x9A2AC6D5 EQ PUSH2 0x254 JUMPI DUP1 PUSH4 0xA9F9E675 EQ PUSH2 0x270 JUMPI DUP1 PUSH4 0xB1A1A882 EQ PUSH2 0x299 JUMPI PUSH2 0x10E JUMP JUMPDEST DUP1 PUSH4 0x1532EC34 EQ PUSH2 0x113 JUMPI DUP1 PUSH4 0x3CB747BF EQ PUSH2 0x13C JUMPI DUP1 PUSH4 0x485CC955 EQ PUSH2 0x167 JUMPI DUP1 PUSH4 0x58A997F6 EQ PUSH2 0x190 JUMPI DUP1 PUSH4 0x838B2520 EQ PUSH2 0x1B9 JUMPI PUSH2 0x10E JUMP JUMPDEST CALLDATASIZE PUSH2 0x10E JUMPI PUSH2 0xAE CALLER PUSH2 0x2B5 JUMP JUMPDEST ISZERO PUSH2 0xEE JUMPI PUSH1 0x40 MLOAD PUSH32 0x8C379A000000000000000000000000000000000000000000000000000000000 DUP2 MSTORE PUSH1 0x4 ADD PUSH2 0xE5 SWAP1 PUSH2 0x140E JUMP JUMPDEST PUSH1 0x40 MLOAD DUP1 SWAP2 SUB SWAP1 REVERT JUMPDEST PUSH2 0x10C CALLER CALLER PUSH3 0x30D40 PUSH1 0x40 MLOAD DUP1 PUSH1 0x20 ADD PUSH1 0x40 MSTORE DUP1 PUSH1 0x0 DUP2 MSTORE POP PUSH2 0x2C8 JUMP JUMPDEST STOP JUMPDEST PUSH1 0x0 DUP1 REVERT JUMPDEST CALLVALUE DUP1 ISZERO PUSH2 0x11F JUMPI PUSH1 0x0 DUP1 REVERT JUMPDEST POP PUSH2 0x13A PUSH1 0x4 DUP1 CALLDATASIZE SUB DUP2 ADD SWAP1 PUSH2 0x135 SWAP2 SWAP1 PUSH2 0x1531 JUMP JUMPDEST PUSH2 0x3FC JUMP JUMPDEST STOP JUMPDEST CALLVALUE DUP1 ISZERO PUSH2 0x148 JUMPI PUSH1 0x0 DUP1 REVERT JUMPDEST POP PUSH2 0x151 PUSH2 0x6F3 JUMP JUMPDEST PUSH1 0x40 MLOAD PUSH2 0x15E SWAP2 SWAP1 PUSH2 0x15C8 JUMP JUMPDEST PUSH1 0x40 MLOAD DUP1 SWAP2 SUB SWAP1 RETURN JUMPDEST CALLVALUE DUP1 ISZERO PUSH2 0x173 JUMPI PUSH1 0x0 DUP1 REVERT JUMPDEST POP PUSH2 0x18E PUSH1 0x4 DUP1 CALLDATASIZE SUB DUP2 ADD SWAP1 PUSH2 0x189 SWAP2 SWAP1 PUSH2 0x15E3 JUMP JUMPDEST PUSH2 0x717 JUMP JUMPDEST STOP JUMPDEST CALLVALUE DUP1 ISZERO PUSH2 0x19C JUMPI PUSH1 0x0 DUP1 REVERT JUMPDEST POP PUSH2 0x1B7 PUSH1 0x4 DUP1 CALLDATASIZE SUB DUP2 ADD SWAP1 PUSH2 0x1B2 SWAP2 SWAP1 PUSH2 0x165F JUMP JUMPDEST PUSH2 0x82B JUMP JUMPDEST STOP JUMPDEST CALLVALUE DUP1 ISZERO PUSH2 0x1C5 JUMPI PUSH1 0x0 DUP1 REVERT JUMPDEST POP PUSH2 0x1E0 PUSH1 0x4 DUP1 CALLDATASIZE SUB DUP2 ADD SWAP1 PUSH2 0x1DB SWAP2 SWAP1 PUSH2 0x16F9 JUMP JUMPDEST PUSH2 0x88C JUMP JUMPDEST STOP JUMPDEST PUSH2 0x1EA PUSH2 0x8A5 JUMP JUMPDEST STOP JUMPDEST CALLVALUE DUP1 ISZERO PUSH2 0x1F8 JUMPI PUSH1 0x0 DUP1 REVERT JUMPDEST POP PUSH2 0x213 PUSH1 0x4 DUP1 CALLDATASIZE SUB DUP2 ADD SWAP1 PUSH2 0x20E SWAP2 SWAP1 PUSH2 0x15E3 JUMP JUMPDEST PUSH2 0x8A7 JUMP JUMPDEST PUSH1 0x40 MLOAD PUSH2 0x220 SWAP2 SWAP1 PUSH2 0x17B7 JUMP JUMPDEST PUSH1 0x40 MLOAD DUP1 SWAP2 SUB SWAP1 RETURN JUMPDEST CALLVALUE DUP1 ISZERO PUSH2 0x235 JUMPI PUSH1 0x0 DUP1 REVERT JUMPDEST POP PUSH2 0x23E PUSH2 0x8CC JUMP JUMPDEST PUSH1 0x40 MLOAD PUSH2 0x24B SWAP2 SWAP1 PUSH2 0x15C8 JUMP JUMPDEST PUSH1 0x40 MLOAD DUP1 SWAP2 SUB SWAP1 RETURN JUMPDEST PUSH2 0x26E PUSH1 0x4 DUP1 CALLDATASIZE SUB DUP2 ADD SWAP1 PUSH2 0x269 SWAP2 SWAP1 PUSH2 0x17D2 JUMP JUMPDEST PUSH2 0x8F2 JUMP JUMPDEST STOP JUMPDEST CALLVALUE DUP1 ISZERO PUSH2 0x27C JUMPI PUSH1 0x0 DUP1 REVERT JUMPDEST POP PUSH2 0x297 PUSH1 0x4 DUP1 CALLDATASIZE SUB DUP2 ADD SWAP1 PUSH2 0x292 SWAP2 SWAP1 PUSH2 0x1846 JUMP JUMPDEST PUSH2 0x948 JUMP JUMPDEST STOP JUMPDEST PUSH2 0x2B3 PUSH1 0x4 DUP1 CALLDATASIZE SUB DUP2 ADD SWAP1 PUSH2 0x2AE SWAP2 SWAP1 PUSH2 0x18F5 JUMP JUMPDEST PUSH2 0xC91 JUMP JUMPDEST STOP JUMPDEST PUSH1 0x0 DUP1 DUP3 EXTCODESIZE SWAP1 POP PUSH1 0x0 DUP2 GT SWAP2 POP POP SWAP2 SWAP1 POP JUMP JUMPDEST PUSH1 0x0 PUSH4 0x662A633A PUSH1 0xE0 SHL PUSH1 0x0 PUSH20 0xDEADDEADDEADDEADDEADDEADDEADDEADDEAD0000 DUP8 DUP8 CALLVALUE DUP8 PUSH1 0x40 MLOAD PUSH1 0x24 ADD PUSH2 0x302 SWAP7 SWAP6 SWAP5 SWAP4 SWAP3 SWAP2 SWAP1 PUSH2 0x1A0F JUMP JUMPDEST PUSH1 0x40 MLOAD PUSH1 0x20 DUP2 DUP4 SUB SUB DUP2 MSTORE SWAP1 PUSH1 0x40 MSTORE SWAP1 PUSH28 0xFFFFFFFFFFFFFFFFFFFFFFFFFFFFFFFFFFFFFFFFFFFFFFFFFFFFFFFF NOT AND PUSH1 0x20 DUP3 ADD DUP1 MLOAD PUSH28 0xFFFFFFFFFFFFFFFFFFFFFFFFFFFFFFFFFFFFFFFFFFFFFFFFFFFFFFFF DUP4 DUP2 DUP4 AND OR DUP4 MSTORE POP POP POP POP SWAP1 POP PUSH2 0x38E PUSH1 0x1 PUSH1 0x0 SWAP1 SLOAD SWAP1 PUSH2 0x100 EXP SWAP1 DIV PUSH20 0xFFFFFFFFFFFFFFFFFFFFFFFFFFFFFFFFFFFFFFFF AND DUP5 DUP4 PUSH2 0xD2F JUMP JUMPDEST DUP4 PUSH20 0xFFFFFFFFFFFFFFFFFFFFFFFFFFFFFFFFFFFFFFFF AND DUP6 PUSH20 0xFFFFFFFFFFFFFFFFFFFFFFFFFFFFFFFFFFFFFFFF AND PUSH32 0x35D79AB81F2B2017E19AFB5C5571778877782D7A8786F5907F93B0F4702F4F23 CALLVALUE DUP6 PUSH1 0x40 MLOAD PUSH2 0x3ED SWAP3 SWAP2 SWAP1 PUSH2 0x1A77 JUMP JUMPDEST PUSH1 0x40 MLOAD DUP1 SWAP2 SUB SWAP1 LOG3 POP POP POP POP POP JUMP JUMPDEST PUSH1 0x1 PUSH1 0x0 SWAP1 SLOAD SWAP1 PUSH2 0x100 EXP SWAP1 DIV PUSH20 0xFFFFFFFFFFFFFFFFFFFFFFFFFFFFFFFFFFFFFFFF AND PUSH2 0x427 PUSH2 0xDAA JUMP JUMPDEST PUSH20 0xFFFFFFFFFFFFFFFFFFFFFFFFFFFFFFFFFFFFFFFF AND CALLER PUSH20 0xFFFFFFFFFFFFFFFFFFFFFFFFFFFFFFFFFFFFFFFF AND EQ PUSH2 0x494 JUMPI PUSH1 0x40 MLOAD PUSH32 0x8C379A000000000000000000000000000000000000000000000000000000000 DUP2 MSTORE PUSH1 0x4 ADD PUSH2 0x48B SWAP1 PUSH2 0x1B19 JUMP JUMPDEST PUSH1 0x40 MLOAD DUP1 SWAP2 SUB SWAP1 REVERT JUMPDEST DUP1 PUSH20 0xFFFFFFFFFFFFFFFFFFFFFFFFFFFFFFFFFFFFFFFF AND PUSH2 0x4B3 PUSH2 0xDAA JUMP JUMPDEST PUSH20 0xFFFFFFFFFFFFFFFFFFFFFFFFFFFFFFFFFFFFFFFF AND PUSH4 0x6E296E45 PUSH1 0x40 MLOAD DUP2 PUSH4 0xFFFFFFFF AND PUSH1 0xE0 SHL DUP2 MSTORE PUSH1 0x4 ADD PUSH1 0x20 PUSH1 0x40 MLOAD DUP1 DUP4 SUB DUP2 DUP7 DUP1 EXTCODESIZE ISZERO DUP1 ISZERO PUSH2 0x4F8 JUMPI PUSH1 0x0 DUP1 REVERT JUMPDEST POP GAS STATICCALL ISZERO DUP1 ISZERO PUSH2 0x50C JUMPI RETURNDATASIZE PUSH1 0x0 DUP1 RETURNDATACOPY RETURNDATASIZE PUSH1 0x0 REVERT JUMPDEST POP POP POP POP PUSH1 0x40 MLOAD RETURNDATASIZE PUSH1 0x1F NOT PUSH1 0x1F DUP3 ADD AND DUP3 ADD DUP1 PUSH1 0x40 MSTORE POP DUP2 ADD SWAP1 PUSH2 0x530 SWAP2 SWAP1 PUSH2 0x1B4E JUMP JUMPDEST PUSH20 0xFFFFFFFFFFFFFFFFFFFFFFFFFFFFFFFFFFFFFFFF AND EQ PUSH2 0x586 JUMPI PUSH1 0x40 MLOAD PUSH32 0x8C379A000000000000000000000000000000000000000000000000000000000 DUP2 MSTORE PUSH1 0x4 ADD PUSH2 0x57D SWAP1 PUSH2 0x1BED JUMP JUMPDEST PUSH1 0x40 MLOAD DUP1 SWAP2 SUB SWAP1 REVERT JUMPDEST PUSH1 0x0 DUP6 PUSH20 0xFFFFFFFFFFFFFFFFFFFFFFFFFFFFFFFFFFFFFFFF AND DUP6 PUSH1 0x0 PUSH8 0xFFFFFFFFFFFFFFFF DUP2 GT ISZERO PUSH2 0x5BB JUMPI PUSH2 0x5BA PUSH2 0x1C0D JUMP JUMPDEST JUMPDEST PUSH1 0x40 MLOAD SWAP1 DUP1 DUP3 MSTORE DUP1 PUSH1 0x1F ADD PUSH1 0x1F NOT AND PUSH1 0x20 ADD DUP3 ADD PUSH1 0x40 MSTORE DUP1 ISZERO PUSH2 0x5ED JUMPI DUP2 PUSH1 0x20 ADD PUSH1 0x1 DUP3 MUL DUP1 CALLDATASIZE DUP4 CALLDATACOPY DUP1 DUP3 ADD SWAP2 POP POP SWAP1 POP JUMPDEST POP PUSH1 0x40 MLOAD PUSH2 0x5FB SWAP2 SWAP1 PUSH2 0x1C78 JUMP JUMPDEST PUSH1 0x0 PUSH1 0x40 MLOAD DUP1 DUP4 SUB DUP2 DUP6 DUP8 GAS CALL SWAP3 POP POP POP RETURNDATASIZE DUP1 PUSH1 0x0 DUP2 EQ PUSH2 0x638 JUMPI PUSH1 0x40 MLOAD SWAP2 POP PUSH1 0x1F NOT PUSH1 0x3F RETURNDATASIZE ADD AND DUP3 ADD PUSH1 0x40 MSTORE RETURNDATASIZE DUP3 MSTORE RETURNDATASIZE PUSH1 0x0 PUSH1 0x20 DUP5 ADD RETURNDATACOPY PUSH2 0x63D JUMP JUMPDEST PUSH1 0x60 SWAP2 POP JUMPDEST POP POP SWAP1 POP DUP1 PUSH2 0x681 JUMPI PUSH1 0x40 MLOAD PUSH32 0x8C379A000000000000000000000000000000000000000000000000000000000 DUP2 MSTORE PUSH1 0x4 ADD PUSH2 0x678 SWAP1 PUSH2 0x1D01 JUMP JUMPDEST PUSH1 0x40 MLOAD DUP1 SWAP2 SUB SWAP1 REVERT JUMPDEST DUP6 PUSH20 0xFFFFFFFFFFFFFFFFFFFFFFFFFFFFFFFFFFFFFFFF AND DUP8 PUSH20 0xFFFFFFFFFFFFFFFFFFFFFFFFFFFFFFFFFFFFFFFF AND PUSH32 0x2AC69EE804D9A7A0984249F508DFAB7CB2534B465B6CE1580F99A38BA9C5E631 DUP8 DUP8 DUP8 PUSH1 0x40 MLOAD PUSH2 0x6E2 SWAP4 SWAP3 SWAP2 SWAP1 PUSH2 0x1D5D JUMP JUMPDEST PUSH1 0x40 MLOAD DUP1 SWAP2 SUB SWAP1 LOG3 POP POP POP POP POP POP POP JUMP JUMPDEST PUSH1 0x0 DUP1 SLOAD SWAP1 PUSH2 0x100 EXP SWAP1 DIV PUSH20 0xFFFFFFFFFFFFFFFFFFFFFFFFFFFFFFFFFFFFFFFF AND DUP2 JUMP JUMPDEST PUSH1 0x0 PUSH20 0xFFFFFFFFFFFFFFFFFFFFFFFFFFFFFFFFFFFFFFFF AND PUSH1 0x0 DUP1 SLOAD SWAP1 PUSH2 0x100 EXP SWAP1 DIV PUSH20 0xFFFFFFFFFFFFFFFFFFFFFFFFFFFFFFFFFFFFFFFF AND PUSH20 0xFFFFFFFFFFFFFFFFFFFFFFFFFFFFFFFFFFFFFFFF AND EQ PUSH2 0x7A6 JUMPI PUSH1 0x40 MLOAD PUSH32 0x8C379A000000000000000000000000000000000000000000000000000000000 DUP2 MSTORE PUSH1 0x4 ADD PUSH2 0x79D SWAP1 PUSH2 0x1E01 JUMP JUMPDEST PUSH1 0x40 MLOAD DUP1 SWAP2 SUB SWAP1 REVERT JUMPDEST DUP2 PUSH1 0x0 DUP1 PUSH2 0x100 EXP DUP2 SLOAD DUP2 PUSH20 0xFFFFFFFFFFFFFFFFFFFFFFFFFFFFFFFFFFFFFFFF MUL NOT AND SWAP1 DUP4 PUSH20 0xFFFFFFFFFFFFFFFFFFFFFFFFFFFFFFFFFFFFFFFF AND MUL OR SWAP1 SSTORE POP DUP1 PUSH1 0x1 PUSH1 0x0 PUSH2 0x100 EXP DUP2 SLOAD DUP2 PUSH20 0xFFFFFFFFFFFFFFFFFFFFFFFFFFFFFFFFFFFFFFFF MUL NOT AND SWAP1 DUP4 PUSH20 0xFFFFFFFFFFFFFFFFFFFFFFFFFFFFFFFFFFFFFFFF AND MUL OR SWAP1 SSTORE POP POP POP JUMP JUMPDEST PUSH2 0x834 CALLER PUSH2 0x2B5 JUMP JUMPDEST ISZERO PUSH2 0x874 JUMPI PUSH1 0x40 MLOAD PUSH32 0x8C379A000000000000000000000000000000000000000000000000000000000 DUP2 MSTORE PUSH1 0x4 ADD PUSH2 0x86B SWAP1 PUSH2 0x140E JUMP JUMPDEST PUSH1 0x40 MLOAD DUP1 SWAP2 SUB SWAP1 REVERT JUMPDEST PUSH2 0x884 DUP7 DUP7 CALLER CALLER DUP9 DUP9 DUP9 DUP9 PUSH2 0xDD3 JUMP JUMPDEST POP POP POP POP POP POP JUMP JUMPDEST PUSH2 0x89C DUP8 DUP8 CALLER DUP9 DUP9 DUP9 DUP9 DUP9 PUSH2 0xDD3 JUMP JUMPDEST POP POP POP POP POP POP POP JUMP JUMPDEST JUMP JUMPDEST PUSH1 0x2 PUSH1 0x20 MSTORE DUP2 PUSH1 0x0 MSTORE PUSH1 0x40 PUSH1 0x0 KECCAK256 PUSH1 0x20 MSTORE DUP1 PUSH1 0x0 MSTORE PUSH1 0x40 PUSH1 0x0 KECCAK256 PUSH1 0x0 SWAP2 POP SWAP2 POP POP SLOAD DUP2 JUMP JUMPDEST PUSH1 0x1 PUSH1 0x0 SWAP1 SLOAD SWAP1 PUSH2 0x100 EXP SWAP1 DIV PUSH20 0xFFFFFFFFFFFFFFFFFFFFFFFFFFFFFFFFFFFFFFFF AND DUP2 JUMP JUMPDEST PUSH2 0x942 CALLER DUP6 DUP6 DUP6 DUP6 DUP1 DUP1 PUSH1 0x1F ADD PUSH1 0x20 DUP1 SWAP2 DIV MUL PUSH1 0x20 ADD PUSH1 0x40 MLOAD SWAP1 DUP2 ADD PUSH1 0x40 MSTORE DUP1 SWAP4 SWAP3 SWAP2 SWAP1 DUP2 DUP2 MSTORE PUSH1 0x20 ADD DUP4 DUP4 DUP1 DUP3 DUP5 CALLDATACOPY PUSH1 0x0 DUP2 DUP5 ADD MSTORE PUSH1 0x1F NOT PUSH1 0x1F DUP3 ADD AND SWAP1 POP DUP1 DUP4 ADD SWAP3 POP POP POP POP POP POP POP PUSH2 0x2C8 JUMP JUMPDEST POP POP POP POP JUMP JUMPDEST PUSH1 0x1 PUSH1 0x0 SWAP1 SLOAD SWAP1 PUSH2 0x100 EXP SWAP1 DIV PUSH20 0xFFFFFFFFFFFFFFFFFFFFFFFFFFFFFFFFFFFFFFFF AND PUSH2 0x973 PUSH2 0xDAA JUMP JUMPDEST PUSH20 0xFFFFFFFFFFFFFFFFFFFFFFFFFFFFFFFFFFFFFFFF AND CALLER PUSH20 0xFFFFFFFFFFFFFFFFFFFFFFFFFFFFFFFFFFFFFFFF AND EQ PUSH2 0x9E0 JUMPI PUSH1 0x40 MLOAD PUSH32 0x8C379A000000000000000000000000000000000000000000000000000000000 DUP2 MSTORE PUSH1 0x4 ADD PUSH2 0x9D7 SWAP1 PUSH2 0x1B19 JUMP JUMPDEST PUSH1 0x40 MLOAD DUP1 SWAP2 SUB SWAP1 REVERT JUMPDEST DUP1 PUSH20 0xFFFFFFFFFFFFFFFFFFFFFFFFFFFFFFFFFFFFFFFF AND PUSH2 0x9FF PUSH2 0xDAA JUMP JUMPDEST PUSH20 0xFFFFFFFFFFFFFFFFFFFFFFFFFFFFFFFFFFFFFFFF AND PUSH4 0x6E296E45 PUSH1 0x40 MLOAD DUP2 PUSH4 0xFFFFFFFF AND PUSH1 0xE0 SHL DUP2 MSTORE PUSH1 0x4 ADD PUSH1 0x20 PUSH1 0x40 MLOAD DUP1 DUP4 SUB DUP2 DUP7 DUP1 EXTCODESIZE ISZERO DUP1 ISZERO PUSH2 0xA44 JUMPI PUSH1 0x0 DUP1 REVERT JUMPDEST POP GAS STATICCALL ISZERO DUP1 ISZERO PUSH2 0xA58 JUMPI RETURNDATASIZE PUSH1 0x0 DUP1 RETURNDATACOPY RETURNDATASIZE PUSH1 0x0 REVERT JUMPDEST POP POP POP POP PUSH1 0x40 MLOAD RETURNDATASIZE PUSH1 0x1F NOT PUSH1 0x1F DUP3 ADD AND DUP3 ADD DUP1 PUSH1 0x40 MSTORE POP DUP2 ADD SWAP1 PUSH2 0xA7C SWAP2 SWAP1 PUSH2 0x1B4E JUMP JUMPDEST PUSH20 0xFFFFFFFFFFFFFFFFFFFFFFFFFFFFFFFFFFFFFFFF AND EQ PUSH2 0xAD2 JUMPI PUSH1 0x40 MLOAD PUSH32 0x8C379A000000000000000000000000000000000000000000000000000000000 DUP2 MSTORE PUSH1 0x4 ADD PUSH2 0xAC9 SWAP1 PUSH2 0x1BED JUMP JUMPDEST PUSH1 0x40 MLOAD DUP1 SWAP2 SUB SWAP1 REVERT JUMPDEST DUP4 PUSH1 0x2 PUSH1 0x0 DUP11 PUSH20 0xFFFFFFFFFFFFFFFFFFFFFFFFFFFFFFFFFFFFFFFF AND PUSH20 0xFFFFFFFFFFFFFFFFFFFFFFFFFFFFFFFFFFFFFFFF AND DUP2 MSTORE PUSH1 0x20 ADD SWAP1 DUP2 MSTORE PUSH1 0x20 ADD PUSH1 0x0 KECCAK256 PUSH1 0x0 DUP10 PUSH20 0xFFFFFFFFFFFFFFFFFFFFFFFFFFFFFFFFFFFFFFFF AND PUSH20 0xFFFFFFFFFFFFFFFFFFFFFFFFFFFFFFFFFFFFFFFF AND DUP2 MSTORE PUSH1 0x20 ADD SWAP1 DUP2 MSTORE PUSH1 0x20 ADD PUSH1 0x0 KECCAK256 SLOAD PUSH2 0xB5A SWAP2 SWAP1 PUSH2 0x1E50 JUMP JUMPDEST PUSH1 0x2 PUSH1 0x0 DUP11 PUSH20 0xFFFFFFFFFFFFFFFFFFFFFFFFFFFFFFFFFFFFFFFF AND PUSH20 0xFFFFFFFFFFFFFFFFFFFFFFFFFFFFFFFFFFFFFFFF AND DUP2 MSTORE PUSH1 0x20 ADD SWAP1 DUP2 MSTORE PUSH1 0x20 ADD PUSH1 0x0 KECCAK256 PUSH1 0x0 DUP10 PUSH20 0xFFFFFFFFFFFFFFFFFFFFFFFFFFFFFFFFFFFFFFFF AND PUSH20 0xFFFFFFFFFFFFFFFFFFFFFFFFFFFFFFFFFFFFFFFF AND DUP2 MSTORE PUSH1 0x20 ADD SWAP1 DUP2 MSTORE PUSH1 0x20 ADD PUSH1 0x0 KECCAK256 DUP2 SWAP1 SSTORE POP PUSH2 0xC05 DUP6 DUP6 DUP11 PUSH20 0xFFFFFFFFFFFFFFFFFFFFFFFFFFFFFFFFFFFFFFFF AND PUSH2 0x1048 SWAP1 SWAP3 SWAP2 SWAP1 PUSH4 0xFFFFFFFF AND JUMP JUMPDEST DUP6 PUSH20 0xFFFFFFFFFFFFFFFFFFFFFFFFFFFFFFFFFFFFFFFF AND DUP8 PUSH20 0xFFFFFFFFFFFFFFFFFFFFFFFFFFFFFFFFFFFFFFFF AND DUP10 PUSH20 0xFFFFFFFFFFFFFFFFFFFFFFFFFFFFFFFFFFFFFFFF AND PUSH32 0x3CEEE06C1E37648FCBB6ED52E17B3E1F275A1F8C7B22A84B2B84732431E046B3 DUP9 DUP9 DUP9 DUP9 PUSH1 0x40 MLOAD PUSH2 0xC7F SWAP5 SWAP4 SWAP3 SWAP2 SWAP1 PUSH2 0x1E84 JUMP JUMPDEST PUSH1 0x40 MLOAD DUP1 SWAP2 SUB SWAP1 LOG4 POP POP POP POP POP POP POP POP JUMP JUMPDEST PUSH2 0xC9A CALLER PUSH2 0x2B5 JUMP JUMPDEST ISZERO PUSH2 0xCDA JUMPI PUSH1 0x40 MLOAD PUSH32 0x8C379A000000000000000000000000000000000000000000000000000000000 DUP2 MSTORE PUSH1 0x4 ADD PUSH2 0xCD1 SWAP1 PUSH2 0x140E JUMP JUMPDEST PUSH1 0x40 MLOAD DUP1 SWAP2 SUB SWAP1 REVERT JUMPDEST PUSH2 0xD2A CALLER CALLER DUP6 DUP6 DUP6 DUP1 DUP1 PUSH1 0x1F ADD PUSH1 0x20 DUP1 SWAP2 DIV MUL PUSH1 0x20 ADD PUSH1 0x40 MLOAD SWAP1 DUP2 ADD PUSH1 0x40 MSTORE DUP1 SWAP4 SWAP3 SWAP2 SWAP1 DUP2 DUP2 MSTORE PUSH1 0x20 ADD DUP4 DUP4 DUP1 DUP3 DUP5 CALLDATACOPY PUSH1 0x0 DUP2 DUP5 ADD MSTORE PUSH1 0x1F NOT PUSH1 0x1F DUP3 ADD AND SWAP1 POP DUP1 DUP4 ADD SWAP3 POP POP POP POP POP POP POP PUSH2 0x2C8 JUMP JUMPDEST POP POP POP JUMP JUMPDEST PUSH2 0xD37 PUSH2 0xDAA JUMP JUMPDEST PUSH20 0xFFFFFFFFFFFFFFFFFFFFFFFFFFFFFFFFFFFFFFFF AND PUSH4 0x3DBB202B DUP5 DUP4 DUP6 PUSH1 0x40 MLOAD DUP5 PUSH4 0xFFFFFFFF AND PUSH1 0xE0 SHL DUP2 MSTORE PUSH1 0x4 ADD PUSH2 0xD73 SWAP4 SWAP3 SWAP2 SWAP1 PUSH2 0x1ED3 JUMP JUMPDEST PUSH1 0x0 PUSH1 0x40 MLOAD DUP1 DUP4 SUB DUP2 PUSH1 0x0 DUP8 DUP1 EXTCODESIZE ISZERO DUP1 ISZERO PUSH2 0xD8D JUMPI PUSH1 0x0 DUP1 REVERT JUMPDEST POP GAS CALL ISZERO DUP1 ISZERO PUSH2 0xDA1 JUMPI RETURNDATASIZE PUSH1 0x0 DUP1 RETURNDATACOPY RETURNDATASIZE PUSH1 0x0 REVERT JUMPDEST POP POP POP POP POP POP POP JUMP JUMPDEST PUSH1 0x0 DUP1 PUSH1 0x0 SWAP1 SLOAD SWAP1 PUSH2 0x100 EXP SWAP1 DIV PUSH20 0xFFFFFFFFFFFFFFFFFFFFFFFFFFFFFFFFFFFFFFFF AND SWAP1 POP SWAP1 JUMP JUMPDEST PUSH2 0xE00 DUP7 ADDRESS DUP7 DUP12 PUSH20 0xFFFFFFFFFFFFFFFFFFFFFFFFFFFFFFFFFFFFFFFF AND PUSH2 0x10CE SWAP1 SWAP4 SWAP3 SWAP2 SWAP1 PUSH4 0xFFFFFFFF AND JUMP JUMPDEST PUSH1 0x0 PUSH4 0x662A633A PUSH1 0xE0 SHL DUP10 DUP10 DUP10 DUP10 DUP10 DUP9 DUP9 PUSH1 0x40 MLOAD PUSH1 0x24 ADD PUSH2 0xE27 SWAP8 SWAP7 SWAP6 SWAP5 SWAP4 SWAP3 SWAP2 SWAP1 PUSH2 0x1F11 JUMP JUMPDEST PUSH1 0x40 MLOAD PUSH1 0x20 DUP2 DUP4 SUB SUB DUP2 MSTORE SWAP1 PUSH1 0x40 MSTORE SWAP1 PUSH28 0xFFFFFFFFFFFFFFFFFFFFFFFFFFFFFFFFFFFFFFFFFFFFFFFFFFFFFFFF NOT AND PUSH1 0x20 DUP3 ADD DUP1 MLOAD PUSH28 0xFFFFFFFFFFFFFFFFFFFFFFFFFFFFFFFFFFFFFFFFFFFFFFFFFFFFFFFF DUP4 DUP2 DUP4 AND OR DUP4 MSTORE POP POP POP POP SWAP1 POP PUSH2 0xEB3 PUSH1 0x1 PUSH1 0x0 SWAP1 SLOAD SWAP1 PUSH2 0x100 EXP SWAP1 DIV PUSH20 0xFFFFFFFFFFFFFFFFFFFFFFFFFFFFFFFFFFFFFFFF AND DUP6 DUP4 PUSH2 0xD2F JUMP JUMPDEST DUP5 PUSH1 0x2 PUSH1 0x0 DUP12 PUSH20 0xFFFFFFFFFFFFFFFFFFFFFFFFFFFFFFFFFFFFFFFF AND PUSH20 0xFFFFFFFFFFFFFFFFFFFFFFFFFFFFFFFFFFFFFFFF AND DUP2 MSTORE PUSH1 0x20 ADD SWAP1 DUP2 MSTORE PUSH1 0x20 ADD PUSH1 0x0 KECCAK256 PUSH1 0x0 DUP11 PUSH20 0xFFFFFFFFFFFFFFFFFFFFFFFFFFFFFFFFFFFFFFFF AND PUSH20 0xFFFFFFFFFFFFFFFFFFFFFFFFFFFFFFFFFFFFFFFF AND DUP2 MSTORE PUSH1 0x20 ADD SWAP1 DUP2 MSTORE PUSH1 0x20 ADD PUSH1 0x0 KECCAK256 SLOAD PUSH2 0xF3B SWAP2 SWAP1 PUSH2 0x1F7B JUMP JUMPDEST PUSH1 0x2 PUSH1 0x0 DUP12 PUSH20 0xFFFFFFFFFFFFFFFFFFFFFFFFFFFFFFFFFFFFFFFF AND PUSH20 0xFFFFFFFFFFFFFFFFFFFFFFFFFFFFFFFFFFFFFFFF AND DUP2 MSTORE PUSH1 0x20 ADD SWAP1 DUP2 MSTORE PUSH1 0x20 ADD PUSH1 0x0 KECCAK256 PUSH1 0x0 DUP11 PUSH20 0xFFFFFFFFFFFFFFFFFFFFFFFFFFFFFFFFFFFFFFFF AND PUSH20 0xFFFFFFFFFFFFFFFFFFFFFFFFFFFFFFFFFFFFFFFF AND DUP2 MSTORE PUSH1 0x20 ADD SWAP1 DUP2 MSTORE PUSH1 0x20 ADD PUSH1 0x0 KECCAK256 DUP2 SWAP1 SSTORE POP DUP7 PUSH20 0xFFFFFFFFFFFFFFFFFFFFFFFFFFFFFFFFFFFFFFFF AND DUP9 PUSH20 0xFFFFFFFFFFFFFFFFFFFFFFFFFFFFFFFFFFFFFFFF AND DUP11 PUSH20 0xFFFFFFFFFFFFFFFFFFFFFFFFFFFFFFFFFFFFFFFF AND PUSH32 0x718594027ABD4EAED59F95162563E0CC6D0E8D5B86B1C7BE8B1B0AC3343D0396 DUP10 DUP10 DUP9 DUP9 PUSH1 0x40 MLOAD PUSH2 0x1035 SWAP5 SWAP4 SWAP3 SWAP2 SWAP1 PUSH2 0x1E84 JUMP JUMPDEST PUSH1 0x40 MLOAD DUP1 SWAP2 SUB SWAP1 LOG4 POP POP POP POP POP POP POP POP POP JUMP JUMPDEST PUSH2 0x10C9 DUP4 PUSH4 0xA9059CBB PUSH1 0xE0 SHL DUP5 DUP5 PUSH1 0x40 MLOAD PUSH1 0x24 ADD PUSH2 0x1067 SWAP3 SWAP2 SWAP1 PUSH2 0x1FD1 JUMP JUMPDEST PUSH1 0x40 MLOAD PUSH1 0x20 DUP2 DUP4 SUB SUB DUP2 MSTORE SWAP1 PUSH1 0x40 MSTORE SWAP1 PUSH28 0xFFFFFFFFFFFFFFFFFFFFFFFFFFFFFFFFFFFFFFFFFFFFFFFFFFFFFFFF NOT AND PUSH1 0x20 DUP3 ADD DUP1 MLOAD PUSH28 0xFFFFFFFFFFFFFFFFFFFFFFFFFFFFFFFFFFFFFFFFFFFFFFFFFFFFFFFF DUP4 DUP2 DUP4 AND OR DUP4 MSTORE POP POP POP POP PUSH2 0x1157 JUMP JUMPDEST POP POP POP JUMP JUMPDEST PUSH2 0x1151 DUP5 PUSH4 0x23B872DD PUSH1 0xE0 SHL DUP6 DUP6 DUP6 PUSH1 0x40 MLOAD PUSH1 0x24 ADD PUSH2 0x10EF SWAP4 SWAP3 SWAP2 SWAP1 PUSH2 0x1FFA JUMP JUMPDEST PUSH1 0x40 MLOAD PUSH1 0x20 DUP2 DUP4 SUB SUB DUP2 MSTORE SWAP1 PUSH1 0x40 MSTORE SWAP1 PUSH28 0xFFFFFFFFFFFFFFFFFFFFFFFFFFFFFFFFFFFFFFFFFFFFFFFFFFFFFFFF NOT AND PUSH1 0x20 DUP3 ADD DUP1 MLOAD PUSH28 0xFFFFFFFFFFFFFFFFFFFFFFFFFFFFFFFFFFFFFFFFFFFFFFFFFFFFFFFF DUP4 DUP2 DUP4 AND OR DUP4 MSTORE POP POP POP POP PUSH2 0x1157 JUMP JUMPDEST POP POP POP POP JUMP JUMPDEST PUSH1 0x0 PUSH2 0x11B9 DUP3 PUSH1 0x40 MLOAD DUP1 PUSH1 0x40 ADD PUSH1 0x40 MSTORE DUP1 PUSH1 0x20 DUP2 MSTORE PUSH1 0x20 ADD PUSH32 0x5361666545524332303A206C6F772D6C6576656C2063616C6C206661696C6564 DUP2 MSTORE POP DUP6 PUSH20 0xFFFFFFFFFFFFFFFFFFFFFFFFFFFFFFFFFFFFFFFF AND PUSH2 0x121E SWAP1 SWAP3 SWAP2 SWAP1 PUSH4 0xFFFFFFFF AND JUMP JUMPDEST SWAP1 POP PUSH1 0x0 DUP2 MLOAD GT ISZERO PUSH2 0x1219 JUMPI DUP1 DUP1 PUSH1 0x20 ADD SWAP1 MLOAD DUP2 ADD SWAP1 PUSH2 0x11D9 SWAP2 SWAP1 PUSH2 0x2069 JUMP JUMPDEST PUSH2 0x1218 JUMPI PUSH1 0x40 MLOAD PUSH32 0x8C379A000000000000000000000000000000000000000000000000000000000 DUP2 MSTORE PUSH1 0x4 ADD PUSH2 0x120F SWAP1 PUSH2 0x2108 JUMP JUMPDEST PUSH1 0x40 MLOAD DUP1 SWAP2 SUB SWAP1 REVERT JUMPDEST JUMPDEST POP POP POP JUMP JUMPDEST PUSH1 0x60 PUSH2 0x122D DUP5 DUP5 PUSH1 0x0 DUP6 PUSH2 0x1236 JUMP JUMPDEST SWAP1 POP SWAP4 SWAP3 POP POP POP JUMP JUMPDEST PUSH1 0x60 DUP3 SELFBALANCE LT ISZERO PUSH2 0x127B JUMPI PUSH1 0x40 MLOAD PUSH32 0x8C379A000000000000000000000000000000000000000000000000000000000 DUP2 MSTORE PUSH1 0x4 ADD PUSH2 0x1272 SWAP1 PUSH2 0x219A JUMP JUMPDEST PUSH1 0x40 MLOAD DUP1 SWAP2 SUB SWAP1 REVERT JUMPDEST PUSH2 0x1284 DUP6 PUSH2 0x2B5 JUMP JUMPDEST PUSH2 0x12C3 JUMPI PUSH1 0x40 MLOAD PUSH32 0x8C379A000000000000000000000000000000000000000000000000000000000 DUP2 MSTORE PUSH1 0x4 ADD PUSH2 0x12BA SWAP1 PUSH2 0x2206 JUMP JUMPDEST PUSH1 0x40 MLOAD DUP1 SWAP2 SUB SWAP1 REVERT JUMPDEST PUSH1 0x0 DUP1 DUP7 PUSH20 0xFFFFFFFFFFFFFFFFFFFFFFFFFFFFFFFFFFFFFFFF AND DUP6 DUP8 PUSH1 0x40 MLOAD PUSH2 0x12EC SWAP2 SWAP1 PUSH2 0x1C78 JUMP JUMPDEST PUSH1 0x0 PUSH1 0x40 MLOAD DUP1 DUP4 SUB DUP2 DUP6 DUP8 GAS CALL SWAP3 POP POP POP RETURNDATASIZE DUP1 PUSH1 0x0 DUP2 EQ PUSH2 0x1329 JUMPI PUSH1 0x40 MLOAD SWAP2 POP PUSH1 0x1F NOT PUSH1 0x3F RETURNDATASIZE ADD AND DUP3 ADD PUSH1 0x40 MSTORE RETURNDATASIZE DUP3 MSTORE RETURNDATASIZE PUSH1 0x0 PUSH1 0x20 DUP5 ADD RETURNDATACOPY PUSH2 0x132E JUMP JUMPDEST PUSH1 0x60 SWAP2 POP JUMPDEST POP SWAP2 POP SWAP2 POP PUSH2 0x133E DUP3 DUP3 DUP7 PUSH2 0x134A JUMP JUMPDEST SWAP3 POP POP POP SWAP5 SWAP4 POP POP POP POP JUMP JUMPDEST PUSH1 0x60 DUP4 ISZERO PUSH2 0x135A JUMPI DUP3 SWAP1 POP PUSH2 0x13AA JUMP JUMPDEST PUSH1 0x0 DUP4 MLOAD GT ISZERO PUSH2 0x136D JUMPI DUP3 MLOAD DUP1 DUP5 PUSH1 0x20 ADD REVERT JUMPDEST DUP2 PUSH1 0x40 MLOAD PUSH32 0x8C379A000000000000000000000000000000000000000000000000000000000 DUP2 MSTORE PUSH1 0x4 ADD PUSH2 0x13A1 SWAP2 SWAP1 PUSH2 0x226A JUMP JUMPDEST PUSH1 0x40 MLOAD DUP1 SWAP2 SUB SWAP1 REVERT JUMPDEST SWAP4 SWAP3 POP POP POP JUMP JUMPDEST PUSH1 0x0 DUP3 DUP3 MSTORE PUSH1 0x20 DUP3 ADD SWAP1 POP SWAP3 SWAP2 POP POP JUMP JUMPDEST PUSH32 0x4163636F756E74206E6F7420454F410000000000000000000000000000000000 PUSH1 0x0 DUP3 ADD MSTORE POP JUMP JUMPDEST PUSH1 0x0 PUSH2 0x13F8 PUSH1 0xF DUP4 PUSH2 0x13B1 JUMP JUMPDEST SWAP2 POP PUSH2 0x1403 DUP3 PUSH2 0x13C2 JUMP JUMPDEST PUSH1 0x20 DUP3 ADD SWAP1 POP SWAP2 SWAP1 POP JUMP JUMPDEST PUSH1 0x0 PUSH1 0x20 DUP3 ADD SWAP1 POP DUP2 DUP2 SUB PUSH1 0x0 DUP4 ADD MSTORE PUSH2 0x1427 DUP2 PUSH2 0x13EB JUMP JUMPDEST SWAP1 POP SWAP2 SWAP1 POP JUMP JUMPDEST PUSH1 0x0 DUP1 REVERT JUMPDEST PUSH1 0x0 DUP1 REVERT JUMPDEST PUSH1 0x0 PUSH20 0xFFFFFFFFFFFFFFFFFFFFFFFFFFFFFFFFFFFFFFFF DUP3 AND SWAP1 POP SWAP2 SWAP1 POP JUMP JUMPDEST PUSH1 0x0 PUSH2 0x1463 DUP3 PUSH2 0x1438 JUMP JUMPDEST SWAP1 POP SWAP2 SWAP1 POP JUMP JUMPDEST PUSH2 0x1473 DUP2 PUSH2 0x1458 JUMP JUMPDEST DUP2 EQ PUSH2 0x147E JUMPI PUSH1 0x0 DUP1 REVERT JUMPDEST POP JUMP JUMPDEST PUSH1 0x0 DUP2 CALLDATALOAD SWAP1 POP PUSH2 0x1490 DUP2 PUSH2 0x146A JUMP JUMPDEST SWAP3 SWAP2 POP POP JUMP JUMPDEST PUSH1 0x0 DUP2 SWAP1 POP SWAP2 SWAP1 POP JUMP JUMPDEST PUSH2 0x14A9 DUP2 PUSH2 0x1496 JUMP JUMPDEST DUP2 EQ PUSH2 0x14B4 JUMPI PUSH1 0x0 DUP1 REVERT JUMPDEST POP JUMP JUMPDEST PUSH1 0x0 DUP2 CALLDATALOAD SWAP1 POP PUSH2 0x14C6 DUP2 PUSH2 0x14A0 JUMP JUMPDEST SWAP3 SWAP2 POP POP JUMP JUMPDEST PUSH1 0x0 DUP1 REVERT JUMPDEST PUSH1 0x0 DUP1 REVERT JUMPDEST PUSH1 0x0 DUP1 REVERT JUMPDEST PUSH1 0x0 DUP1 DUP4 PUSH1 0x1F DUP5 ADD SLT PUSH2 0x14F1 JUMPI PUSH2 0x14F0 PUSH2 0x14CC JUMP JUMPDEST JUMPDEST DUP3 CALLDATALOAD SWAP1 POP PUSH8 0xFFFFFFFFFFFFFFFF DUP2 GT ISZERO PUSH2 0x150E JUMPI PUSH2 0x150D PUSH2 0x14D1 JUMP JUMPDEST JUMPDEST PUSH1 0x20 DUP4 ADD SWAP2 POP DUP4 PUSH1 0x1 DUP3 MUL DUP4 ADD GT ISZERO PUSH2 0x152A JUMPI PUSH2 0x1529 PUSH2 0x14D6 JUMP JUMPDEST JUMPDEST SWAP3 POP SWAP3 SWAP1 POP JUMP JUMPDEST PUSH1 0x0 DUP1 PUSH1 0x0 DUP1 PUSH1 0x0 PUSH1 0x80 DUP7 DUP9 SUB SLT ISZERO PUSH2 0x154D JUMPI PUSH2 0x154C PUSH2 0x142E JUMP JUMPDEST JUMPDEST PUSH1 0x0 PUSH2 0x155B DUP9 DUP3 DUP10 ADD PUSH2 0x1481 JUMP JUMPDEST SWAP6 POP POP PUSH1 0x20 PUSH2 0x156C DUP9 DUP3 DUP10 ADD PUSH2 0x1481 JUMP JUMPDEST SWAP5 POP POP PUSH1 0x40 PUSH2 0x157D DUP9 DUP3 DUP10 ADD PUSH2 0x14B7 JUMP JUMPDEST SWAP4 POP POP PUSH1 0x60 DUP7 ADD CALLDATALOAD PUSH8 0xFFFFFFFFFFFFFFFF DUP2 GT ISZERO PUSH2 0x159E JUMPI PUSH2 0x159D PUSH2 0x1433 JUMP JUMPDEST JUMPDEST PUSH2 0x15AA DUP9 DUP3 DUP10 ADD PUSH2 0x14DB JUMP JUMPDEST SWAP3 POP SWAP3 POP POP SWAP3 SWAP6 POP SWAP3 SWAP6 SWAP1 SWAP4 POP JUMP JUMPDEST PUSH2 0x15C2 DUP2 PUSH2 0x1458 JUMP JUMPDEST DUP3 MSTORE POP POP JUMP JUMPDEST PUSH1 0x0 PUSH1 0x20 DUP3 ADD SWAP1 POP PUSH2 0x15DD PUSH1 0x0 DUP4 ADD DUP5 PUSH2 0x15B9 JUMP JUMPDEST SWAP3 SWAP2 POP POP JUMP JUMPDEST PUSH1 0x0 DUP1 PUSH1 0x40 DUP4 DUP6 SUB SLT ISZERO PUSH2 0x15FA JUMPI PUSH2 0x15F9 PUSH2 0x142E JUMP JUMPDEST JUMPDEST PUSH1 0x0 PUSH2 0x1608 DUP6 DUP3 DUP7 ADD PUSH2 0x1481 JUMP JUMPDEST SWAP3 POP POP PUSH1 0x20 PUSH2 0x1619 DUP6 DUP3 DUP7 ADD PUSH2 0x1481 JUMP JUMPDEST SWAP2 POP POP SWAP3 POP SWAP3 SWAP1 POP JUMP JUMPDEST PUSH1 0x0 PUSH4 0xFFFFFFFF DUP3 AND SWAP1 POP SWAP2 SWAP1 POP JUMP JUMPDEST PUSH2 0x163C DUP2 PUSH2 0x1623 JUMP JUMPDEST DUP2 EQ PUSH2 0x1647 JUMPI PUSH1 0x0 DUP1 REVERT JUMPDEST POP JUMP JUMPDEST PUSH1 0x0 DUP2 CALLDATALOAD SWAP1 POP PUSH2 0x1659 DUP2 PUSH2 0x1633 JUMP JUMPDEST SWAP3 SWAP2 POP POP JUMP JUMPDEST PUSH1 0x0 DUP1 PUSH1 0x0 DUP1 PUSH1 0x0 DUP1 PUSH1 0xA0 DUP8 DUP10 SUB SLT ISZERO PUSH2 0x167C JUMPI PUSH2 0x167B PUSH2 0x142E JUMP JUMPDEST JUMPDEST PUSH1 0x0 PUSH2 0x168A DUP10 DUP3 DUP11 ADD PUSH2 0x1481 JUMP JUMPDEST SWAP7 POP POP PUSH1 0x20 PUSH2 0x169B DUP10 DUP3 DUP11 ADD PUSH2 0x1481 JUMP JUMPDEST SWAP6 POP POP PUSH1 0x40 PUSH2 0x16AC DUP10 DUP3 DUP11 ADD PUSH2 0x14B7 JUMP JUMPDEST SWAP5 POP POP PUSH1 0x60 PUSH2 0x16BD DUP10 DUP3 DUP11 ADD PUSH2 0x164A JUMP JUMPDEST SWAP4 POP POP PUSH1 0x80 DUP8 ADD CALLDATALOAD PUSH8 0xFFFFFFFFFFFFFFFF DUP2 GT ISZERO PUSH2 0x16DE JUMPI PUSH2 0x16DD PUSH2 0x1433 JUMP JUMPDEST JUMPDEST PUSH2 0x16EA DUP10 DUP3 DUP11 ADD PUSH2 0x14DB JUMP JUMPDEST SWAP3 POP SWAP3 POP POP SWAP3 SWAP6 POP SWAP3 SWAP6 POP SWAP3 SWAP6 JUMP JUMPDEST PUSH1 0x0 DUP1 PUSH1 0x0 DUP1 PUSH1 0x0 DUP1 PUSH1 0x0 PUSH1 0xC0 DUP9 DUP11 SUB SLT ISZERO PUSH2 0x1718 JUMPI PUSH2 0x1717 PUSH2 0x142E JUMP JUMPDEST JUMPDEST PUSH1 0x0 PUSH2 0x1726 DUP11 DUP3 DUP12 ADD PUSH2 0x1481 JUMP JUMPDEST SWAP8 POP POP PUSH1 0x20 PUSH2 0x1737 DUP11 DUP3 DUP12 ADD PUSH2 0x1481 JUMP JUMPDEST SWAP7 POP POP PUSH1 0x40 PUSH2 0x1748 DUP11 DUP3 DUP12 ADD PUSH2 0x1481 JUMP JUMPDEST SWAP6 POP POP PUSH1 0x60 PUSH2 0x1759 DUP11 DUP3 DUP12 ADD PUSH2 0x14B7 JUMP JUMPDEST SWAP5 POP POP PUSH1 0x80 PUSH2 0x176A DUP11 DUP3 DUP12 ADD PUSH2 0x164A JUMP JUMPDEST SWAP4 POP POP PUSH1 0xA0 DUP9 ADD CALLDATALOAD PUSH8 0xFFFFFFFFFFFFFFFF DUP2 GT ISZERO PUSH2 0x178B JUMPI PUSH2 0x178A PUSH2 0x1433 JUMP JUMPDEST JUMPDEST PUSH2 0x1797 DUP11 DUP3 DUP12 ADD PUSH2 0x14DB JUMP JUMPDEST SWAP3 POP SWAP3 POP POP SWAP3 SWAP6 SWAP9 SWAP2 SWAP5 SWAP8 POP SWAP3 SWAP6 POP JUMP JUMPDEST PUSH2 0x17B1 DUP2 PUSH2 0x1496 JUMP JUMPDEST DUP3 MSTORE POP POP JUMP JUMPDEST PUSH1 0x0 PUSH1 0x20 DUP3 ADD SWAP1 POP PUSH2 0x17CC PUSH1 0x0 DUP4 ADD DUP5 PUSH2 0x17A8 JUMP JUMPDEST SWAP3 SWAP2 POP POP JUMP JUMPDEST PUSH1 0x0 DUP1 PUSH1 0x0 DUP1 PUSH1 0x60 DUP6 DUP8 SUB SLT ISZERO PUSH2 0x17EC JUMPI PUSH2 0x17EB PUSH2 0x142E JUMP JUMPDEST JUMPDEST PUSH1 0x0 PUSH2 0x17FA DUP8 DUP3 DUP9 ADD PUSH2 0x1481 JUMP JUMPDEST SWAP5 POP POP PUSH1 0x20 PUSH2 0x180B DUP8 DUP3 DUP9 ADD PUSH2 0x164A JUMP JUMPDEST SWAP4 POP POP PUSH1 0x40 DUP6 ADD CALLDATALOAD PUSH8 0xFFFFFFFFFFFFFFFF DUP2 GT ISZERO PUSH2 0x182C JUMPI PUSH2 0x182B PUSH2 0x1433 JUMP JUMPDEST JUMPDEST PUSH2 0x1838 DUP8 DUP3 DUP9 ADD PUSH2 0x14DB JUMP JUMPDEST SWAP3 POP SWAP3 POP POP SWAP3 SWAP6 SWAP2 SWAP5 POP SWAP3 POP JUMP JUMPDEST PUSH1 0x0 DUP1 PUSH1 0x0 DUP1 PUSH1 0x0 DUP1 PUSH1 0x0 PUSH1 0xC0 DUP9 DUP11 SUB SLT ISZERO PUSH2 0x1865 JUMPI PUSH2 0x1864 PUSH2 0x142E JUMP JUMPDEST JUMPDEST PUSH1 0x0 PUSH2 0x1873 DUP11 DUP3 DUP12 ADD PUSH2 0x1481 JUMP JUMPDEST SWAP8 POP POP PUSH1 0x20 PUSH2 0x1884 DUP11 DUP3 DUP12 ADD PUSH2 0x1481 JUMP JUMPDEST SWAP7 POP POP PUSH1 0x40 PUSH2 0x1895 DUP11 DUP3 DUP12 ADD PUSH2 0x1481 JUMP JUMPDEST SWAP6 POP POP PUSH1 0x60 PUSH2 0x18A6 DUP11 DUP3 DUP12 ADD PUSH2 0x1481 JUMP JUMPDEST SWAP5 POP POP PUSH1 0x80 PUSH2 0x18B7 DUP11 DUP3 DUP12 ADD PUSH2 0x14B7 JUMP JUMPDEST SWAP4 POP POP PUSH1 0xA0 DUP9 ADD CALLDATALOAD PUSH8 0xFFFFFFFFFFFFFFFF DUP2 GT ISZERO PUSH2 0x18D8 JUMPI PUSH2 0x18D7 PUSH2 0x1433 JUMP JUMPDEST JUMPDEST PUSH2 0x18E4 DUP11 DUP3 DUP12 ADD PUSH2 0x14DB JUMP JUMPDEST SWAP3 POP SWAP3 POP POP SWAP3 SWAP6 SWAP9 SWAP2 SWAP5 SWAP8 POP SWAP3 SWAP6 POP JUMP JUMPDEST PUSH1 0x0 DUP1 PUSH1 0x0 PUSH1 0x40 DUP5 DUP7 SUB SLT ISZERO PUSH2 0x190E JUMPI PUSH2 0x190D PUSH2 0x142E JUMP JUMPDEST JUMPDEST PUSH1 0x0 PUSH2 0x191C DUP7 DUP3 DUP8 ADD PUSH2 0x164A JUMP JUMPDEST SWAP4 POP POP PUSH1 0x20 DUP5 ADD CALLDATALOAD PUSH8 0xFFFFFFFFFFFFFFFF DUP2 GT ISZERO PUSH2 0x193D JUMPI PUSH2 0x193C PUSH2 0x1433 JUMP JUMPDEST JUMPDEST PUSH2 0x1949 DUP7 DUP3 DUP8 ADD PUSH2 0x14DB JUMP JUMPDEST SWAP3 POP SWAP3 POP POP SWAP3 POP SWAP3 POP SWAP3 JUMP JUMPDEST PUSH1 0x0 PUSH2 0x1960 DUP3 PUSH2 0x1438 JUMP JUMPDEST SWAP1 POP SWAP2 SWAP1 POP JUMP JUMPDEST PUSH2 0x1970 DUP2 PUSH2 0x1955 JUMP JUMPDEST DUP3 MSTORE POP POP JUMP JUMPDEST PUSH1 0x0 DUP2 MLOAD SWAP1 POP SWAP2 SWAP1 POP JUMP JUMPDEST PUSH1 0x0 DUP3 DUP3 MSTORE PUSH1 0x20 DUP3 ADD SWAP1 POP SWAP3 SWAP2 POP POP JUMP JUMPDEST PUSH1 0x0 JUMPDEST DUP4 DUP2 LT ISZERO PUSH2 0x19B0 JUMPI DUP1 DUP3 ADD MLOAD DUP2 DUP5 ADD MSTORE PUSH1 0x20 DUP2 ADD SWAP1 POP PUSH2 0x1995 JUMP JUMPDEST DUP4 DUP2 GT ISZERO PUSH2 0x19BF JUMPI PUSH1 0x0 DUP5 DUP5 ADD MSTORE JUMPDEST POP POP POP POP JUMP JUMPDEST PUSH1 0x0 PUSH1 0x1F NOT PUSH1 0x1F DUP4 ADD AND SWAP1 POP SWAP2 SWAP1 POP JUMP JUMPDEST PUSH1 0x0 PUSH2 0x19E1 DUP3 PUSH2 0x1976 JUMP JUMPDEST PUSH2 0x19EB DUP2 DUP6 PUSH2 0x1981 JUMP JUMPDEST SWAP4 POP PUSH2 0x19FB DUP2 DUP6 PUSH1 0x20 DUP7 ADD PUSH2 0x1992 JUMP JUMPDEST PUSH2 0x1A04 DUP2 PUSH2 0x19C5 JUMP JUMPDEST DUP5 ADD SWAP2 POP POP SWAP3 SWAP2 POP POP JUMP JUMPDEST PUSH1 0x0 PUSH1 0xC0 DUP3 ADD SWAP1 POP PUSH2 0x1A24 PUSH1 0x0 DUP4 ADD DUP10 PUSH2 0x15B9 JUMP JUMPDEST PUSH2 0x1A31 PUSH1 0x20 DUP4 ADD DUP9 PUSH2 0x1967 JUMP JUMPDEST PUSH2 0x1A3E PUSH1 0x40 DUP4 ADD DUP8 PUSH2 0x15B9 JUMP JUMPDEST PUSH2 0x1A4B PUSH1 0x60 DUP4 ADD DUP7 PUSH2 0x15B9 JUMP JUMPDEST PUSH2 0x1A58 PUSH1 0x80 DUP4 ADD DUP6 PUSH2 0x17A8 JUMP JUMPDEST DUP2 DUP2 SUB PUSH1 0xA0 DUP4 ADD MSTORE PUSH2 0x1A6A DUP2 DUP5 PUSH2 0x19D6 JUMP JUMPDEST SWAP1 POP SWAP8 SWAP7 POP POP POP POP POP POP POP JUMP JUMPDEST PUSH1 0x0 PUSH1 0x40 DUP3 ADD SWAP1 POP PUSH2 0x1A8C PUSH1 0x0 DUP4 ADD DUP6 PUSH2 0x17A8 JUMP JUMPDEST DUP2 DUP2 SUB PUSH1 0x20 DUP4 ADD MSTORE PUSH2 0x1A9E DUP2 DUP5 PUSH2 0x19D6 JUMP JUMPDEST SWAP1 POP SWAP4 SWAP3 POP POP POP JUMP JUMPDEST PUSH32 0x4F564D5F58434841494E3A206D657373656E67657220636F6E74726163742075 PUSH1 0x0 DUP3 ADD MSTORE PUSH32 0x6E61757468656E74696361746564000000000000000000000000000000000000 PUSH1 0x20 DUP3 ADD MSTORE POP JUMP JUMPDEST PUSH1 0x0 PUSH2 0x1B03 PUSH1 0x2E DUP4 PUSH2 0x13B1 JUMP JUMPDEST SWAP2 POP PUSH2 0x1B0E DUP3 PUSH2 0x1AA7 JUMP JUMPDEST PUSH1 0x40 DUP3 ADD SWAP1 POP SWAP2 SWAP1 POP JUMP JUMPDEST PUSH1 0x0 PUSH1 0x20 DUP3 ADD SWAP1 POP DUP2 DUP2 SUB PUSH1 0x0 DUP4 ADD MSTORE PUSH2 0x1B32 DUP2 PUSH2 0x1AF6 JUMP JUMPDEST SWAP1 POP SWAP2 SWAP1 POP JUMP JUMPDEST PUSH1 0x0 DUP2 MLOAD SWAP1 POP PUSH2 0x1B48 DUP2 PUSH2 0x146A JUMP JUMPDEST SWAP3 SWAP2 POP POP JUMP JUMPDEST PUSH1 0x0 PUSH1 0x20 DUP3 DUP5 SUB SLT ISZERO PUSH2 0x1B64 JUMPI PUSH2 0x1B63 PUSH2 0x142E JUMP JUMPDEST JUMPDEST PUSH1 0x0 PUSH2 0x1B72 DUP5 DUP3 DUP6 ADD PUSH2 0x1B39 JUMP JUMPDEST SWAP2 POP POP SWAP3 SWAP2 POP POP JUMP JUMPDEST PUSH32 0x4F564D5F58434841494E3A2077726F6E672073656E646572206F662063726F73 PUSH1 0x0 DUP3 ADD MSTORE PUSH32 0x732D646F6D61696E206D65737361676500000000000000000000000000000000 PUSH1 0x20 DUP3 ADD MSTORE POP JUMP JUMPDEST PUSH1 0x0 PUSH2 0x1BD7 PUSH1 0x30 DUP4 PUSH2 0x13B1 JUMP JUMPDEST SWAP2 POP PUSH2 0x1BE2 DUP3 PUSH2 0x1B7B JUMP JUMPDEST PUSH1 0x40 DUP3 ADD SWAP1 POP SWAP2 SWAP1 POP JUMP JUMPDEST PUSH1 0x0 PUSH1 0x20 DUP3 ADD SWAP1 POP DUP2 DUP2 SUB PUSH1 0x0 DUP4 ADD MSTORE PUSH2 0x1C06 DUP2 PUSH2 0x1BCA JUMP JUMPDEST SWAP1 POP SWAP2 SWAP1 POP JUMP JUMPDEST PUSH32 0x4E487B7100000000000000000000000000000000000000000000000000000000 PUSH1 0x0 MSTORE PUSH1 0x41 PUSH1 0x4 MSTORE PUSH1 0x24 PUSH1 0x0 REVERT JUMPDEST PUSH1 0x0 DUP2 SWAP1 POP SWAP3 SWAP2 POP POP JUMP JUMPDEST PUSH1 0x0 PUSH2 0x1C52 DUP3 PUSH2 0x1976 JUMP JUMPDEST PUSH2 0x1C5C DUP2 DUP6 PUSH2 0x1C3C JUMP JUMPDEST SWAP4 POP PUSH2 0x1C6C DUP2 DUP6 PUSH1 0x20 DUP7 ADD PUSH2 0x1992 JUMP JUMPDEST DUP1 DUP5 ADD SWAP2 POP POP SWAP3 SWAP2 POP POP JUMP JUMPDEST PUSH1 0x0 PUSH2 0x1C84 DUP3 DUP5 PUSH2 0x1C47 JUMP JUMPDEST SWAP2 POP DUP2 SWAP1 POP SWAP3 SWAP2 POP POP JUMP JUMPDEST PUSH32 0x5472616E7366657248656C7065723A3A736166655472616E736665724554483A PUSH1 0x0 DUP3 ADD MSTORE PUSH32 0x20455448207472616E73666572206661696C6564000000000000000000000000 PUSH1 0x20 DUP3 ADD MSTORE POP JUMP JUMPDEST PUSH1 0x0 PUSH2 0x1CEB PUSH1 0x34 DUP4 PUSH2 0x13B1 JUMP JUMPDEST SWAP2 POP PUSH2 0x1CF6 DUP3 PUSH2 0x1C8F JUMP JUMPDEST PUSH1 0x40 DUP3 ADD SWAP1 POP SWAP2 SWAP1 POP JUMP JUMPDEST PUSH1 0x0 PUSH1 0x20 DUP3 ADD SWAP1 POP DUP2 DUP2 SUB PUSH1 0x0 DUP4 ADD MSTORE PUSH2 0x1D1A DUP2 PUSH2 0x1CDE JUMP JUMPDEST SWAP1 POP SWAP2 SWAP1 POP JUMP JUMPDEST DUP3 DUP2 DUP4 CALLDATACOPY PUSH1 0x0 DUP4 DUP4 ADD MSTORE POP POP POP JUMP JUMPDEST PUSH1 0x0 PUSH2 0x1D3C DUP4 DUP6 PUSH2 0x1981 JUMP JUMPDEST SWAP4 POP PUSH2 0x1D49 DUP4 DUP6 DUP5 PUSH2 0x1D21 JUMP JUMPDEST PUSH2 0x1D52 DUP4 PUSH2 0x19C5 JUMP JUMPDEST DUP5 ADD SWAP1 POP SWAP4 SWAP3 POP POP POP JUMP JUMPDEST PUSH1 0x0 PUSH1 0x40 DUP3 ADD SWAP1 POP PUSH2 0x1D72 PUSH1 0x0 DUP4 ADD DUP7 PUSH2 0x17A8 JUMP JUMPDEST DUP2 DUP2 SUB PUSH1 0x20 DUP4 ADD MSTORE PUSH2 0x1D85 DUP2 DUP5 DUP7 PUSH2 0x1D30 JUMP JUMPDEST SWAP1 POP SWAP5 SWAP4 POP POP POP POP JUMP JUMPDEST PUSH32 0x436F6E74726163742068617320616C7265616479206265656E20696E69746961 PUSH1 0x0 DUP3 ADD MSTORE PUSH32 0x6C697A65642E0000000000000000000000000000000000000000000000000000 PUSH1 0x20 DUP3 ADD MSTORE POP JUMP JUMPDEST PUSH1 0x0 PUSH2 0x1DEB PUSH1 0x26 DUP4 PUSH2 0x13B1 JUMP JUMPDEST SWAP2 POP PUSH2 0x1DF6 DUP3 PUSH2 0x1D8F JUMP JUMPDEST PUSH1 0x40 DUP3 ADD SWAP1 POP SWAP2 SWAP1 POP JUMP JUMPDEST PUSH1 0x0 PUSH1 0x20 DUP3 ADD SWAP1 POP DUP2 DUP2 SUB PUSH1 0x0 DUP4 ADD MSTORE PUSH2 0x1E1A DUP2 PUSH2 0x1DDE JUMP JUMPDEST SWAP1 POP SWAP2 SWAP1 POP JUMP JUMPDEST PUSH32 0x4E487B7100000000000000000000000000000000000000000000000000000000 PUSH1 0x0 MSTORE PUSH1 0x11 PUSH1 0x4 MSTORE PUSH1 0x24 PUSH1 0x0 REVERT JUMPDEST PUSH1 0x0 PUSH2 0x1E5B DUP3 PUSH2 0x1496 JUMP JUMPDEST SWAP2 POP PUSH2 0x1E66 DUP4 PUSH2 0x1496 JUMP JUMPDEST SWAP3 POP DUP3 DUP3 LT ISZERO PUSH2 0x1E79 JUMPI PUSH2 0x1E78 PUSH2 0x1E21 JUMP JUMPDEST JUMPDEST DUP3 DUP3 SUB SWAP1 POP SWAP3 SWAP2 POP POP JUMP JUMPDEST PUSH1 0x0 PUSH1 0x60 DUP3 ADD SWAP1 POP PUSH2 0x1E99 PUSH1 0x0 DUP4 ADD DUP8 PUSH2 0x15B9 JUMP JUMPDEST PUSH2 0x1EA6 PUSH1 0x20 DUP4 ADD DUP7 PUSH2 0x17A8 JUMP JUMPDEST DUP2 DUP2 SUB PUSH1 0x40 DUP4 ADD MSTORE PUSH2 0x1EB9 DUP2 DUP5 DUP7 PUSH2 0x1D30 JUMP JUMPDEST SWAP1 POP SWAP6 SWAP5 POP POP POP POP POP JUMP JUMPDEST PUSH2 0x1ECD DUP2 PUSH2 0x1623 JUMP JUMPDEST DUP3 MSTORE POP POP JUMP JUMPDEST PUSH1 0x0 PUSH1 0x60 DUP3 ADD SWAP1 POP PUSH2 0x1EE8 PUSH1 0x0 DUP4 ADD DUP7 PUSH2 0x15B9 JUMP JUMPDEST DUP2 DUP2 SUB PUSH1 0x20 DUP4 ADD MSTORE PUSH2 0x1EFA DUP2 DUP6 PUSH2 0x19D6 JUMP JUMPDEST SWAP1 POP PUSH2 0x1F09 PUSH1 0x40 DUP4 ADD DUP5 PUSH2 0x1EC4 JUMP JUMPDEST SWAP5 SWAP4 POP POP POP POP JUMP JUMPDEST PUSH1 0x0 PUSH1 0xC0 DUP3 ADD SWAP1 POP PUSH2 0x1F26 PUSH1 0x0 DUP4 ADD DUP11 PUSH2 0x15B9 JUMP JUMPDEST PUSH2 0x1F33 PUSH1 0x20 DUP4 ADD DUP10 PUSH2 0x15B9 JUMP JUMPDEST PUSH2 0x1F40 PUSH1 0x40 DUP4 ADD DUP9 PUSH2 0x15B9 JUMP JUMPDEST PUSH2 0x1F4D PUSH1 0x60 DUP4 ADD DUP8 PUSH2 0x15B9 JUMP JUMPDEST PUSH2 0x1F5A PUSH1 0x80 DUP4 ADD DUP7 PUSH2 0x17A8 JUMP JUMPDEST DUP2 DUP2 SUB PUSH1 0xA0 DUP4 ADD MSTORE PUSH2 0x1F6D DUP2 DUP5 DUP7 PUSH2 0x1D30 JUMP JUMPDEST SWAP1 POP SWAP9 SWAP8 POP POP POP POP POP POP POP POP JUMP JUMPDEST PUSH1 0x0 PUSH2 0x1F86 DUP3 PUSH2 0x1496 JUMP JUMPDEST SWAP2 POP PUSH2 0x1F91 DUP4 PUSH2 0x1496 JUMP JUMPDEST SWAP3 POP DUP3 PUSH32 0xFFFFFFFFFFFFFFFFFFFFFFFFFFFFFFFFFFFFFFFFFFFFFFFFFFFFFFFFFFFFFFFF SUB DUP3 GT ISZERO PUSH2 0x1FC6 JUMPI PUSH2 0x1FC5 PUSH2 0x1E21 JUMP JUMPDEST JUMPDEST DUP3 DUP3 ADD SWAP1 POP SWAP3 SWAP2 POP POP JUMP JUMPDEST PUSH1 0x0 PUSH1 0x40 DUP3 ADD SWAP1 POP PUSH2 0x1FE6 PUSH1 0x0 DUP4 ADD DUP6 PUSH2 0x15B9 JUMP JUMPDEST PUSH2 0x1FF3 PUSH1 0x20 DUP4 ADD DUP5 PUSH2 0x17A8 JUMP JUMPDEST SWAP4 SWAP3 POP POP POP JUMP JUMPDEST PUSH1 0x0 PUSH1 0x60 DUP3 ADD SWAP1 POP PUSH2 0x200F PUSH1 0x0 DUP4 ADD DUP7 PUSH2 0x15B9 JUMP JUMPDEST PUSH2 0x201C PUSH1 0x20 DUP4 ADD DUP6 PUSH2 0x15B9 JUMP JUMPDEST PUSH2 0x2029 PUSH1 0x40 DUP4 ADD DUP5 PUSH2 0x17A8 JUMP JUMPDEST SWAP5 SWAP4 POP POP POP POP JUMP JUMPDEST PUSH1 0x0 DUP2 ISZERO ISZERO SWAP1 POP SWAP2 SWAP1 POP JUMP JUMPDEST PUSH2 0x2046 DUP2 PUSH2 0x2031 JUMP JUMPDEST DUP2 EQ PUSH2 0x2051 JUMPI PUSH1 0x0 DUP1 REVERT JUMPDEST POP JUMP JUMPDEST PUSH1 0x0 DUP2 MLOAD SWAP1 POP PUSH2 0x2063 DUP2 PUSH2 0x203D JUMP JUMPDEST SWAP3 SWAP2 POP POP JUMP JUMPDEST PUSH1 0x0 PUSH1 0x20 DUP3 DUP5 SUB SLT ISZERO PUSH2 0x207F JUMPI PUSH2 0x207E PUSH2 0x142E JUMP JUMPDEST JUMPDEST PUSH1 0x0 PUSH2 0x208D DUP5 DUP3 DUP6 ADD PUSH2 0x2054 JUMP JUMPDEST SWAP2 POP POP SWAP3 SWAP2 POP POP JUMP JUMPDEST PUSH32 0x5361666545524332303A204552433230206F7065726174696F6E20646964206E PUSH1 0x0 DUP3 ADD MSTORE PUSH32 0x6F74207375636365656400000000000000000000000000000000000000000000 PUSH1 0x20 DUP3 ADD MSTORE POP JUMP JUMPDEST PUSH1 0x0 PUSH2 0x20F2 PUSH1 0x2A DUP4 PUSH2 0x13B1 JUMP JUMPDEST SWAP2 POP PUSH2 0x20FD DUP3 PUSH2 0x2096 JUMP JUMPDEST PUSH1 0x40 DUP3 ADD SWAP1 POP SWAP2 SWAP1 POP JUMP JUMPDEST PUSH1 0x0 PUSH1 0x20 DUP3 ADD SWAP1 POP DUP2 DUP2 SUB PUSH1 0x0 DUP4 ADD MSTORE PUSH2 0x2121 DUP2 PUSH2 0x20E5 JUMP JUMPDEST SWAP1 POP SWAP2 SWAP1 POP JUMP JUMPDEST PUSH32 0x416464726573733A20696E73756666696369656E742062616C616E636520666F PUSH1 0x0 DUP3 ADD MSTORE PUSH32 0x722063616C6C0000000000000000000000000000000000000000000000000000 PUSH1 0x20 DUP3 ADD MSTORE POP JUMP JUMPDEST PUSH1 0x0 PUSH2 0x2184 PUSH1 0x26 DUP4 PUSH2 0x13B1 JUMP JUMPDEST SWAP2 POP PUSH2 0x218F DUP3 PUSH2 0x2128 JUMP JUMPDEST PUSH1 0x40 DUP3 ADD SWAP1 POP SWAP2 SWAP1 POP JUMP JUMPDEST PUSH1 0x0 PUSH1 0x20 DUP3 ADD SWAP1 POP DUP2 DUP2 SUB PUSH1 0x0 DUP4 ADD MSTORE PUSH2 0x21B3 DUP2 PUSH2 0x2177 JUMP JUMPDEST SWAP1 POP SWAP2 SWAP1 POP JUMP JUMPDEST PUSH32 0x416464726573733A2063616C6C20746F206E6F6E2D636F6E7472616374000000 PUSH1 0x0 DUP3 ADD MSTORE POP JUMP JUMPDEST PUSH1 0x0 PUSH2 0x21F0 PUSH1 0x1D DUP4 PUSH2 0x13B1 JUMP JUMPDEST SWAP2 POP PUSH2 0x21FB DUP3 PUSH2 0x21BA JUMP JUMPDEST PUSH1 0x20 DUP3 ADD SWAP1 POP SWAP2 SWAP1 POP JUMP JUMPDEST PUSH1 0x0 PUSH1 0x20 DUP3 ADD SWAP1 POP DUP2 DUP2 SUB PUSH1 0x0 DUP4 ADD MSTORE PUSH2 0x221F DUP2 PUSH2 0x21E3 JUMP JUMPDEST SWAP1 POP SWAP2 SWAP1 POP JUMP JUMPDEST PUSH1 0x0 DUP2 MLOAD SWAP1 POP SWAP2 SWAP1 POP JUMP JUMPDEST PUSH1 0x0 PUSH2 0x223C DUP3 PUSH2 0x2226 JUMP JUMPDEST PUSH2 0x2246 DUP2 DUP6 PUSH2 0x13B1 JUMP JUMPDEST SWAP4 POP PUSH2 0x2256 DUP2 DUP6 PUSH1 0x20 DUP7 ADD PUSH2 0x1992 JUMP JUMPDEST PUSH2 0x225F DUP2 PUSH2 0x19C5 JUMP JUMPDEST DUP5 ADD SWAP2 POP POP SWAP3 SWAP2 POP POP JUMP JUMPDEST PUSH1 0x0 PUSH1 0x20 DUP3 ADD SWAP1 POP DUP2 DUP2 SUB PUSH1 0x0 DUP4 ADD MSTORE PUSH2 0x2284 DUP2 DUP5 PUSH2 0x2231 JUMP JUMPDEST SWAP1 POP SWAP3 SWAP2 POP POP JUMP INVALID LOG2 PUSH5 0x6970667358 0x22 SLT KECCAK256 REVERT 0x4C 0xEC 0x2A INVALID OR SWAP2 SWAP8 0x4E PUSH18 0xDF8C22C31532E2F0BFEA1D8A945F065514A1 0xCE EXTCODECOPY SLT 0xC3 PUSH5 0x736F6C6343 STOP ADDMOD MULMOD STOP CALLER "
        },
        "methodIdentifiers": {
          "depositERC20(address,address,uint256,uint32,bytes)": "58a997f6",
          "depositERC20To(address,address,address,uint256,uint32,bytes)": "838b2520",
          "depositETH(uint32,bytes)": "b1a1a882",
          "depositETHTo(address,uint32,bytes)": "9a2ac6d5",
          "deposits(address,address)": "8f601f66",
          "donateETH()": "8b4c40b0",
          "finalizeERC20Withdrawal(address,address,address,address,uint256,bytes)": "a9f9e675",
          "finalizeETHWithdrawal(address,address,uint256,bytes)": "1532ec34",
          "initialize(address,address)": "485cc955",
          "l2TokenBridge()": "91c49bf8",
          "messenger()": "3cb747bf"
        }
      }
    }
  }
}