{
  "_format": "hh-sol-artifact-1",
  "contractName": "L1_Contract",
  "sourceName": "contracts/L1smartcontract.sol",
  "abi": [
    {
      "inputs": [
        {
          "internalType": "address",
          "name": "_l1",
          "type": "address"
        },
        {
          "internalType": "address",
          "name": "_l2Distributor",
          "type": "address"
        }
      ],
      "stateMutability": "nonpayable",
      "type": "constructor"
    },
    {
      "inputs": [],
      "name": "L1Contract",
      "outputs": [
        {
          "internalType": "address",
          "name": "",
          "type": "address"
        }
      ],
      "stateMutability": "view",
      "type": "function"
    },
    {
      "inputs": [],
      "name": "L2Distributor",
      "outputs": [
        {
          "internalType": "address",
          "name": "",
          "type": "address"
        }
      ],
      "stateMutability": "view",
      "type": "function"
    },
    {
      "inputs": [],
      "name": "deposit",
      "outputs": [],
      "stateMutability": "payable",
      "type": "function"
    },
    {
      "inputs": [],
      "name": "getContractBalance",
      "outputs": [
        {
          "internalType": "uint256",
          "name": "count",
          "type": "uint256"
        }
      ],
      "stateMutability": "view",
      "type": "function"
    },
    {
      "inputs": [],
      "name": "getCount",
      "outputs": [
        {
          "internalType": "uint256",
          "name": "count",
          "type": "uint256"
        }
      ],
      "stateMutability": "view",
      "type": "function"
    },
    {
      "inputs": [
        {
          "internalType": "address",
          "name": "a",
          "type": "address"
        }
      ],
      "name": "getSenderInitialBalance",
      "outputs": [
        {
          "internalType": "uint256",
          "name": "count",
          "type": "uint256"
        }
      ],
      "stateMutability": "view",
      "type": "function"
    },
    {
      "inputs": [],
      "name": "getTotalBalance",
      "outputs": [
        {
          "internalType": "uint256",
          "name": "count",
          "type": "uint256"
        }
      ],
      "stateMutability": "view",
      "type": "function"
    },
    {
      "inputs": [],
      "name": "goToBridge",
      "outputs": [],
      "stateMutability": "payable",
      "type": "function"
    }
  ],
  "bytecode": "0x60806040523480156200001157600080fd5b506040516200112a3803806200112a83398181016040528101906200003791906200012a565b81600160006101000a81548173ffffffffffffffffffffffffffffffffffffffff021916908373ffffffffffffffffffffffffffffffffffffffff160217905550806000806101000a81548173ffffffffffffffffffffffffffffffffffffffff021916908373ffffffffffffffffffffffffffffffffffffffff160217905550505062000171565b600080fd5b600073ffffffffffffffffffffffffffffffffffffffff82169050919050565b6000620000f282620000c5565b9050919050565b6200010481620000e5565b81146200011057600080fd5b50565b6000815190506200012481620000f9565b92915050565b60008060408385031215620001445762000143620000c0565b5b6000620001548582860162000113565b9250506020620001678582860162000113565b9150509250929050565b610fa980620001816000396000f3fe60806040526004361061007b5760003560e01c8063a87d942c1161004e578063a87d942c1461013e578063af08da9c14610169578063ce3fadb914610173578063d0e30db01461019e5761007b565b806312b58349146100805780633ca8b5e3146100ab578063663a2561146100e85780636f9fb98a14610113575b600080fd5b34801561008c57600080fd5b506100956101a8565b6040516100a291906108e7565b60405180910390f35b3480156100b757600080fd5b506100d260048036038101906100cd9190610965565b6101b2565b6040516100df91906108e7565b60405180910390f35b3480156100f457600080fd5b506100fd6101d3565b60405161010a91906109a1565b60405180910390f35b34801561011f57600080fd5b506101286101f9565b60405161013591906108e7565b60405180910390f35b34801561014a57600080fd5b50610153610201565b60405161016091906108e7565b60405180910390f35b61017161020e565b005b34801561017f57600080fd5b506101886103ad565b60405161019591906109a1565b60405180910390f35b6101a66103d1565b005b6000600454905090565b60008173ffffffffffffffffffffffffffffffffffffffff16319050919050565b600160009054906101000a900473ffffffffffffffffffffffffffffffffffffffff1681565b600047905090565b6000600280549050905090565b610232604051806060016040528060228152602001610f52602291396004546105b2565b600062030d4060045461024591906109eb565b90506102866040518060400160405280601481526020017f434f4e545241435420676f546f42726964676520000000000000000000000000815250826105b2565b3373ffffffffffffffffffffffffffffffffffffffff16639a2ac6d58260008054906101000a900473ffffffffffffffffffffffffffffffffffffffff1662030d40600260036040516024016102dd929190610c56565b6040516020818303038152906040527fb6e936c3000000000000000000000000000000000000000000000000000000007bffffffffffffffffffffffffffffffffffffffffffffffffffffffff19166020820180517bffffffffffffffffffffffffffffffffffffffffffffffffffffffff83818316178352505050506040518563ffffffff1660e01b815260040161037893929190610d7b565b6000604051808303818588803b15801561039157600080fd5b505af11580156103a5573d6000803e3d6000fd5b505050505050565b60008054906101000a900473ffffffffffffffffffffffffffffffffffffffff1681565b60003411610414576040517f08c379a000000000000000000000000000000000000000000000000000000000815260040161040b90610e16565b60405180910390fd5b6002339080600181540180825580915050600190039060005260206000200160009091909190916101000a81548173ffffffffffffffffffffffffffffffffffffffff021916908373ffffffffffffffffffffffffffffffffffffffff160217905550600334908060018154018082558091505060019003906000526020600020016000909190919091505534600460008282546104b29190610e36565b9250508190555061050f6040518060400160405280601781526020017f434f4e54524143542073656e6465722062616c616e63650000000000000000008152503373ffffffffffffffffffffffffffffffffffffffff16316105b2565b6105536040518060400160405280601981526020017f434f4e545241435420616464726573736573206c656e677468000000000000008152506002805490506105b2565b600360028054905014156105b05761059f6040518060400160405280601d81526020017f434f4e54524143542061626f757420746f20676f546f4272696467652000000081525061064e565b6105a761020e565b6105af6106e7565b5b565b61064a82826040516024016105c8929190610ed0565b6040516020818303038152906040527f9710a9d0000000000000000000000000000000000000000000000000000000007bffffffffffffffffffffffffffffffffffffffffffffffffffffffff19166020820180517bffffffffffffffffffffffffffffffffffffffffffffffffffffffff83818316178352505050506107b1565b5050565b6106e4816040516024016106629190610f00565b6040516020818303038152906040527f41304fac000000000000000000000000000000000000000000000000000000007bffffffffffffffffffffffffffffffffffffffffffffffffffffffff19166020820180517bffffffffffffffffffffffffffffffffffffffffffffffffffffffff83818316178352505050506107b1565b50565b6000600481905550600067ffffffffffffffff81111561070a57610709610f22565b5b6040519080825280602002602001820160405280156107385781602001602082028036833780820191505090505b506002908051906020019061074e9291906107da565b50600067ffffffffffffffff81111561076a57610769610f22565b5b6040519080825280602002602001820160405280156107985781602001602082028036833780820191505090505b50600390805190602001906107ae929190610864565b50565b60008151905060006a636f6e736f6c652e6c6f679050602083016000808483855afa5050505050565b828054828255906000526020600020908101928215610853579160200282015b828111156108525782518260006101000a81548173ffffffffffffffffffffffffffffffffffffffff021916908373ffffffffffffffffffffffffffffffffffffffff160217905550916020019190600101906107fa565b5b50905061086091906108b1565b5090565b8280548282559060005260206000209081019282156108a0579160200282015b8281111561089f578251825591602001919060010190610884565b5b5090506108ad91906108b1565b5090565b5b808211156108ca5760008160009055506001016108b2565b5090565b6000819050919050565b6108e1816108ce565b82525050565b60006020820190506108fc60008301846108d8565b92915050565b600080fd5b600073ffffffffffffffffffffffffffffffffffffffff82169050919050565b600061093282610907565b9050919050565b61094281610927565b811461094d57600080fd5b50565b60008135905061095f81610939565b92915050565b60006020828403121561097b5761097a610902565b5b600061098984828501610950565b91505092915050565b61099b81610927565b82525050565b60006020820190506109b66000830184610992565b92915050565b7f4e487b7100000000000000000000000000000000000000000000000000000000600052601160045260246000fd5b60006109f6826108ce565b9150610a01836108ce565b925082821015610a1457610a136109bc565b5b828203905092915050565b600081549050919050565b600082825260208201905092915050565b60008190508160005260206000209050919050565b6000610a5b82610907565b9050919050565b610a6b81610a50565b82525050565b6000610a7d8383610a62565b60208301905092915050565b60008160001c9050919050565b600073ffffffffffffffffffffffffffffffffffffffff82169050919050565b6000610ac9610ac483610a89565b610a96565b9050919050565b6000610adc8254610ab6565b9050919050565b6000600182019050919050565b6000610afb82610a1f565b610b058185610a2a565b9350610b1083610a3b565b8060005b83811015610b4857610b2582610ad0565b610b2f8882610a71565b9750610b3a83610ae3565b925050600181019050610b14565b5085935050505092915050565b600081549050919050565b600082825260208201905092915050565b60008190508160005260206000209050919050565b610b8f816108ce565b82525050565b6000610ba18383610b86565b60208301905092915050565b6000819050919050565b6000610bca610bc583610a89565b610bad565b9050919050565b6000610bdd8254610bb7565b9050919050565b6000600182019050919050565b6000610bfc82610b55565b610c068185610b60565b9350610c1183610b71565b8060005b83811015610c4957610c2682610bd1565b610c308882610b95565b9750610c3b83610be4565b925050600181019050610c15565b5085935050505092915050565b60006040820190508181036000830152610c708185610af0565b90508181036020830152610c848184610bf1565b90509392505050565b6000819050919050565b600063ffffffff82169050919050565b6000819050919050565b6000610ccc610cc7610cc284610c8d565b610ca7565b610c97565b9050919050565b610cdc81610cb1565b82525050565b600081519050919050565b600082825260208201905092915050565b60005b83811015610d1c578082015181840152602081019050610d01565b83811115610d2b576000848401525b50505050565b6000601f19601f8301169050919050565b6000610d4d82610ce2565b610d578185610ced565b9350610d67818560208601610cfe565b610d7081610d31565b840191505092915050565b6000606082019050610d906000830186610992565b610d9d6020830185610cd3565b8181036040830152610daf8184610d42565b9050949350505050565b600082825260208201905092915050565b7f56616c75652073686f756c642062652067726561746564207468616e20300000600082015250565b6000610e00601e83610db9565b9150610e0b82610dca565b602082019050919050565b60006020820190508181036000830152610e2f81610df3565b9050919050565b6000610e41826108ce565b9150610e4c836108ce565b9250827fffffffffffffffffffffffffffffffffffffffffffffffffffffffffffffffff03821115610e8157610e806109bc565b5b828201905092915050565b600081519050919050565b6000610ea282610e8c565b610eac8185610db9565b9350610ebc818560208601610cfe565b610ec581610d31565b840191505092915050565b60006040820190508181036000830152610eea8185610e97565b9050610ef960208301846108d8565b9392505050565b60006020820190508181036000830152610f1a8184610e97565b905092915050565b7f4e487b7100000000000000000000000000000000000000000000000000000000600052604160045260246000fdfe434f4e545241435420676f546f42726964676520746f74616c5f62616c616e636520a264697066735822122072001eff85f79fb1f40f0d31cd20d881c52e581e77d8a465a47a2866682137d964736f6c63430008090033",
  "linkReferences": {},
  "deployedLinkReferences": {}
}