{
  "_format": "hh-sol-artifact-1",
  "contractName": "L1_Contract",
  "sourceName": "contracts/L1smartcontract.sol",
  "abi": [
    {
      "inputs": [
        {
          "internalType": "address",
          "name": "_l2Distributor",
          "type": "address"
        }
      ],
      "stateMutability": "nonpayable",
      "type": "constructor"
    },
    {
      "inputs": [],
      "name": "L2Distributor",
      "outputs": [
        {
          "internalType": "address",
          "name": "",
          "type": "address"
        }
      ],
      "stateMutability": "view",
      "type": "function"
    },
    {
      "inputs": [],
      "name": "deposit",
      "outputs": [
        {
          "internalType": "uint256",
          "name": "",
          "type": "uint256"
        }
      ],
      "stateMutability": "payable",
      "type": "function"
    },
    {
      "inputs": [],
      "name": "getContractBalance",
      "outputs": [
        {
          "internalType": "uint256",
          "name": "count",
          "type": "uint256"
        }
      ],
      "stateMutability": "view",
      "type": "function"
    },
    {
      "inputs": [],
      "name": "getCount",
      "outputs": [
        {
          "internalType": "uint256",
          "name": "count",
          "type": "uint256"
        }
      ],
      "stateMutability": "view",
      "type": "function"
    },
    {
      "inputs": [
        {
          "internalType": "address",
          "name": "a",
          "type": "address"
        }
      ],
      "name": "getSenderInitialBalance",
      "outputs": [
        {
          "internalType": "uint256",
          "name": "count",
          "type": "uint256"
        }
      ],
      "stateMutability": "view",
      "type": "function"
    },
    {
      "inputs": [],
      "name": "getTotalBalance",
      "outputs": [
        {
          "internalType": "uint256",
          "name": "count",
          "type": "uint256"
        }
      ],
      "stateMutability": "view",
      "type": "function"
    },
    {
      "inputs": [],
      "name": "goToBridge",
      "outputs": [],
      "stateMutability": "payable",
      "type": "function"
    }
  ],
  "bytecode": "0x608060405234801561001057600080fd5b506040516200108538038062001085833981810160405281019061003491906100dd565b806000806101000a81548173ffffffffffffffffffffffffffffffffffffffff021916908373ffffffffffffffffffffffffffffffffffffffff1602179055505061010a565b600080fd5b600073ffffffffffffffffffffffffffffffffffffffff82169050919050565b60006100aa8261007f565b9050919050565b6100ba8161009f565b81146100c557600080fd5b50565b6000815190506100d7816100b1565b92915050565b6000602082840312156100f3576100f261007a565b5b6000610101848285016100c8565b91505092915050565b610f6b806200011a6000396000f3fe6080604052600436106100705760003560e01c8063a87d942c1161004e578063a87d942c14610108578063af08da9c14610133578063ce3fadb91461013d578063d0e30db01461016857610070565b806312b58349146100755780633ca8b5e3146100a05780636f9fb98a146100dd575b600080fd5b34801561008157600080fd5b5061008a610186565b60405161009791906108a9565b60405180910390f35b3480156100ac57600080fd5b506100c760048036038101906100c29190610927565b610190565b6040516100d491906108a9565b60405180910390f35b3480156100e957600080fd5b506100f26101b1565b6040516100ff91906108a9565b60405180910390f35b34801561011457600080fd5b5061011d6101b9565b60405161012a91906108a9565b60405180910390f35b61013b6101c6565b005b34801561014957600080fd5b50610152610365565b60405161015f9190610963565b60405180910390f35b610170610389565b60405161017d91906108a9565b60405180910390f35b6000600354905090565b60008173ffffffffffffffffffffffffffffffffffffffff16319050919050565b600047905090565b6000600180549050905090565b6101ea604051806060016040528060228152602001610f1460229139600354610574565b600062030d406003546101fd91906109ad565b905061023e6040518060400160405280601481526020017f434f4e545241435420676f546f4272696467652000000000000000000000000081525082610574565b3073ffffffffffffffffffffffffffffffffffffffff16639a2ac6d58260008054906101000a900473ffffffffffffffffffffffffffffffffffffffff1662030d4060016002604051602401610295929190610c18565b6040516020818303038152906040527fb6e936c3000000000000000000000000000000000000000000000000000000007bffffffffffffffffffffffffffffffffffffffffffffffffffffffff19166020820180517bffffffffffffffffffffffffffffffffffffffffffffffffffffffff83818316178352505050506040518563ffffffff1660e01b815260040161033093929190610d3d565b6000604051808303818588803b15801561034957600080fd5b505af115801561035d573d6000803e3d6000fd5b505050505050565b60008054906101000a900473ffffffffffffffffffffffffffffffffffffffff1681565b60008034116103cd576040517f08c379a00000000000000000000000000000000000000000000000000000000081526004016103c490610dd8565b60405180910390fd5b6001339080600181540180825580915050600190039060005260206000200160009091909190916101000a81548173ffffffffffffffffffffffffffffffffffffffff021916908373ffffffffffffffffffffffffffffffffffffffff1602179055506002349080600181540180825580915050600190039060005260206000200160009091909190915055346003600082825461046b9190610df8565b925050819055506104c86040518060400160405280601781526020017f434f4e54524143542073656e6465722062616c616e63650000000000000000008152503373ffffffffffffffffffffffffffffffffffffffff1631610574565b61050c6040518060400160405280601981526020017f434f4e545241435420616464726573736573206c656e67746800000000000000815250600180549050610574565b60036001805490501415610569576105586040518060400160405280601d81526020017f434f4e54524143542061626f757420746f20676f546f42726964676520000000815250610610565b6105606101c6565b6105686106a9565b5b600180549050905090565b61060c828260405160240161058a929190610e92565b6040516020818303038152906040527f9710a9d0000000000000000000000000000000000000000000000000000000007bffffffffffffffffffffffffffffffffffffffffffffffffffffffff19166020820180517bffffffffffffffffffffffffffffffffffffffffffffffffffffffff8381831617835250505050610773565b5050565b6106a6816040516024016106249190610ec2565b6040516020818303038152906040527f41304fac000000000000000000000000000000000000000000000000000000007bffffffffffffffffffffffffffffffffffffffffffffffffffffffff19166020820180517bffffffffffffffffffffffffffffffffffffffffffffffffffffffff8381831617835250505050610773565b50565b6000600381905550600067ffffffffffffffff8111156106cc576106cb610ee4565b5b6040519080825280602002602001820160405280156106fa5781602001602082028036833780820191505090505b506001908051906020019061071092919061079c565b50600067ffffffffffffffff81111561072c5761072b610ee4565b5b60405190808252806020026020018201604052801561075a5781602001602082028036833780820191505090505b5060029080519060200190610770929190610826565b50565b60008151905060006a636f6e736f6c652e6c6f679050602083016000808483855afa5050505050565b828054828255906000526020600020908101928215610815579160200282015b828111156108145782518260006101000a81548173ffffffffffffffffffffffffffffffffffffffff021916908373ffffffffffffffffffffffffffffffffffffffff160217905550916020019190600101906107bc565b5b5090506108229190610873565b5090565b828054828255906000526020600020908101928215610862579160200282015b82811115610861578251825591602001919060010190610846565b5b50905061086f9190610873565b5090565b5b8082111561088c576000816000905550600101610874565b5090565b6000819050919050565b6108a381610890565b82525050565b60006020820190506108be600083018461089a565b92915050565b600080fd5b600073ffffffffffffffffffffffffffffffffffffffff82169050919050565b60006108f4826108c9565b9050919050565b610904816108e9565b811461090f57600080fd5b50565b600081359050610921816108fb565b92915050565b60006020828403121561093d5761093c6108c4565b5b600061094b84828501610912565b91505092915050565b61095d816108e9565b82525050565b60006020820190506109786000830184610954565b92915050565b7f4e487b7100000000000000000000000000000000000000000000000000000000600052601160045260246000fd5b60006109b882610890565b91506109c383610890565b9250828210156109d6576109d561097e565b5b828203905092915050565b600081549050919050565b600082825260208201905092915050565b60008190508160005260206000209050919050565b6000610a1d826108c9565b9050919050565b610a2d81610a12565b82525050565b6000610a3f8383610a24565b60208301905092915050565b60008160001c9050919050565b600073ffffffffffffffffffffffffffffffffffffffff82169050919050565b6000610a8b610a8683610a4b565b610a58565b9050919050565b6000610a9e8254610a78565b9050919050565b6000600182019050919050565b6000610abd826109e1565b610ac781856109ec565b9350610ad2836109fd565b8060005b83811015610b0a57610ae782610a92565b610af18882610a33565b9750610afc83610aa5565b925050600181019050610ad6565b5085935050505092915050565b600081549050919050565b600082825260208201905092915050565b60008190508160005260206000209050919050565b610b5181610890565b82525050565b6000610b638383610b48565b60208301905092915050565b6000819050919050565b6000610b8c610b8783610a4b565b610b6f565b9050919050565b6000610b9f8254610b79565b9050919050565b6000600182019050919050565b6000610bbe82610b17565b610bc88185610b22565b9350610bd383610b33565b8060005b83811015610c0b57610be882610b93565b610bf28882610b57565b9750610bfd83610ba6565b925050600181019050610bd7565b5085935050505092915050565b60006040820190508181036000830152610c328185610ab2565b90508181036020830152610c468184610bb3565b90509392505050565b6000819050919050565b600063ffffffff82169050919050565b6000819050919050565b6000610c8e610c89610c8484610c4f565b610c69565b610c59565b9050919050565b610c9e81610c73565b82525050565b600081519050919050565b600082825260208201905092915050565b60005b83811015610cde578082015181840152602081019050610cc3565b83811115610ced576000848401525b50505050565b6000601f19601f8301169050919050565b6000610d0f82610ca4565b610d198185610caf565b9350610d29818560208601610cc0565b610d3281610cf3565b840191505092915050565b6000606082019050610d526000830186610954565b610d5f6020830185610c95565b8181036040830152610d718184610d04565b9050949350505050565b600082825260208201905092915050565b7f56616c75652073686f756c642062652067726561746564207468616e20300000600082015250565b6000610dc2601e83610d7b565b9150610dcd82610d8c565b602082019050919050565b60006020820190508181036000830152610df181610db5565b9050919050565b6000610e0382610890565b9150610e0e83610890565b9250827fffffffffffffffffffffffffffffffffffffffffffffffffffffffffffffffff03821115610e4357610e4261097e565b5b828201905092915050565b600081519050919050565b6000610e6482610e4e565b610e6e8185610d7b565b9350610e7e818560208601610cc0565b610e8781610cf3565b840191505092915050565b60006040820190508181036000830152610eac8185610e59565b9050610ebb602083018461089a565b9392505050565b60006020820190508181036000830152610edc8184610e59565b905092915050565b7f4e487b7100000000000000000000000000000000000000000000000000000000600052604160045260246000fdfe434f4e545241435420676f546f42726964676520746f74616c5f62616c616e636520a2646970667358221220680c99bca644949c2876fff2181ea8b3ca4b8c872340233388edb52157db8d6664736f6c63430008090033",
  "linkReferences": {},
  "deployedLinkReferences": {}
}