{
  "_format": "hh-sol-artifact-1",
  "contractName": "L2Distributor",
  "sourceName": "contracts/L2Distributor.sol",
  "abi": [
    {
      "inputs": [
        {
          "internalType": "address payable[]",
          "name": "receipientAddresses",
          "type": "address[]"
        },
        {
          "internalType": "uint256[]",
          "name": "recepientValues",
          "type": "uint256[]"
        }
      ],
      "name": "depositFunds",
      "outputs": [],
      "stateMutability": "payable",
      "type": "function"
    }
  ],
  "bytecode": "0x608060405234801561001057600080fd5b506105e1806100206000396000f3fe60806040526004361061001e5760003560e01c806311d7106814610023575b600080fd5b61003d60048036038101906100389190610289565b61003f565b005b818190508484905014610087576040517f08c379a000000000000000000000000000000000000000000000000000000000815260040161007e90610367565b60405180910390fd5b6000805b838390508110156100d0578383828181106100a9576100a8610387565b5b90506020020135826100bb91906103ef565b915080806100c890610445565b91505061008b565b5034811115610114576040517f08c379a000000000000000000000000000000000000000000000000000000000815260040161010b90610500565b60405180910390fd5b60005b838390508110156101bc5785858281811061013557610134610387565b5b905060200201602081019061014a919061057e565b73ffffffffffffffffffffffffffffffffffffffff166108fc85858481811061017657610175610387565b5b905060200201359081150290604051600060405180830381858888f193505050501580156101a8573d6000803e3d6000fd5b5080806101b490610445565b915050610117565b505050505050565b600080fd5b600080fd5b600080fd5b600080fd5b600080fd5b60008083601f8401126101f3576101f26101ce565b5b8235905067ffffffffffffffff8111156102105761020f6101d3565b5b60208301915083602082028301111561022c5761022b6101d8565b5b9250929050565b60008083601f840112610249576102486101ce565b5b8235905067ffffffffffffffff811115610266576102656101d3565b5b602083019150836020820283011115610282576102816101d8565b5b9250929050565b600080600080604085870312156102a3576102a26101c4565b5b600085013567ffffffffffffffff8111156102c1576102c06101c9565b5b6102cd878288016101dd565b9450945050602085013567ffffffffffffffff8111156102f0576102ef6101c9565b5b6102fc87828801610233565b925092505092959194509250565b600082825260208201905092915050565b7f416464726573732076616c756573206c656e677468206d69736d617463680000600082015250565b6000610351601e8361030a565b915061035c8261031b565b602082019050919050565b6000602082019050818103600083015261038081610344565b9050919050565b7f4e487b7100000000000000000000000000000000000000000000000000000000600052603260045260246000fd5b6000819050919050565b7f4e487b7100000000000000000000000000000000000000000000000000000000600052601160045260246000fd5b60006103fa826103b6565b9150610405836103b6565b9250827fffffffffffffffffffffffffffffffffffffffffffffffffffffffffffffffff0382111561043a576104396103c0565b5b828201905092915050565b6000610450826103b6565b91507fffffffffffffffffffffffffffffffffffffffffffffffffffffffffffffffff821415610483576104826103c0565b5b600182019050919050565b7f46756e6473206265696e672064697362757273656420617265206d6f7265207460008201527f68616e2066756e6473207472616e736665727265640000000000000000000000602082015250565b60006104ea60358361030a565b91506104f58261048e565b604082019050919050565b60006020820190508181036000830152610519816104dd565b9050919050565b600073ffffffffffffffffffffffffffffffffffffffff82169050919050565b600061054b82610520565b9050919050565b61055b81610540565b811461056657600080fd5b50565b60008135905061057881610552565b92915050565b600060208284031215610594576105936101c4565b5b60006105a284828501610569565b9150509291505056fea2646970667358221220dec69a2e7767332a4464bacf0b05f62aaec463e66359f9c5c5dc365cafa8fb6564736f6c63430008090033",
  "linkReferences": {},
  "deployedLinkReferences": {}
}